:020000040800F2
:1000000000000120C92D0008350B0008390B00083D
:100010003D0B0008410B0008450B000800000000E4
:10002000000000000000000000000000490B000874
:100030004D0B000800000000510B0008550B000894
:10004000192E0008192E0008192E0008192E000874
:10005000192E0008192E0008192E0008192E000864
:10006000192E0008192E0008192E0008192E000854
:10007000192E0008192E0008192E0008192E000844
:10008000192E0008192E0008192E0008192E000834
:10009000192E0008192E0008192E0008192E000824
:1000A000192E0008192E0008192E0008192E000814
:1000B000192E00080000000000000000192E0008A2
:1000C000192E00080000000000000000192E000892
:1000D00000000000590B0008192E00080000000065
:1000E000192E0008192E0008000000000000000072
:1000F0000000000000000000000000000000000000
:10010000000000000000000000000000192E0008A0
:100110000000000000000000192E0008192E000841
:10012000192E0008192E0008192E0008192E000893
:10013000192E000800000000000000000000000070
:10014000192E0008192E0008192E0008192E000873
:10015000192E0008192E0008192E0008192E000863
:10016000192E0008192E0008192E000800000000A2
:10017000192E0008192E00080000000000000000E1
:0C018000192E0008192E0008192E000886
:1001900010B5054C237833B9044B13B10448AFF3C1
:1001A00000800123237010BD7002002000000000B9
:1001B0005C37000808B5034B1BB103490348AFF394
:1001C000008008BD00000000740200205C370008B9
:1001D000034613F8012B002AFBD1181A0138704787
:1001E00001F0FF01102A2BDB10F0070F08D010F8E8
:1001F000013B013A8B422DD010F0070F42B3F6D1EC
:10020000F0B441EA012141EA014122F007047FF004
:1002100000070023F0E80256083C85EA010586EA5B
:10022000010685FA47F5A3FA87F586FA47F6A5FA97
:1002300087F68EB9EED1F0BC01F0FF0102F00702A3
:1002400032B110F8013B013A83EA010313B1F8D14E
:100250000020704701387047002D06BF354603382F
:10026000073815F0010F07D1013015F4807F02BF68
:10027000013015F4C03F0130F0BC0138704700BFB9
:1002800053B94AB9002908BF00281CBF4FF0FF31FD
:100290004FF0FF3000F074B9ADF1080C6DE904CEF9
:1002A00000F006F8DDF804E0DDE9022304B0704751
:1002B0002DE9F047089D04468E46002B4DD18A4219
:1002C000944669D9B2FA82F252B101FA02F3C2F14C
:1002D000200120FA01F10CFA02FC41EA030E9440DD
:1002E0004FEA1C48210CBEFBF8F61FFA8CF708FBFE
:1002F00016E341EA034306FB07F199420AD91CEBD6
:10030000030306F1FF3080F01F81994240F21C8107
:10031000023E63445B1AA4B2B3FBF8F008FB10334F
:1003200044EA034400FB07F7A7420AD91CEB040484
:1003300000F1FF3380F00A81A74240F20781644454
:10034000023840EA0640E41B00261DB1D4400023D9
:10035000C5E900433146BDE8F0878B4209D9002D3D
:1003600000F0EF800026C5E9000130463146BDE8C7
:10037000F087B3FA83F6002E4AD18B4202D3824231
:1003800000F2F980841A61EB030301209E46002DE0
:10039000E0D0C5E9004EDDE702B9FFDEB2FA82F235
:1003A000002A40F09280A1EB0C014FEA1C471FFA93
:1003B0008CFE0126200CB1FBF7F307FB131140EA7A
:1003C00001410EFB03F0884208D91CEB010103F147
:1003D000FF3802D2884200F2CB804346091AA4B209
:1003E000B1FBF7F007FB101144EA01440EFB00FEDD
:1003F000A64508D91CEB040400F1FF3102D2A64542
:1004000000F2BB800846A4EB0E0440EA03409CE7E0
:10041000C6F12007B34022FA07FC4CEA030C20FA8D
:1004200007F401FA06F31C43F9404FEA1C4900FAAD
:1004300006F3B1FBF9F8200C1FFA8CFE09FB18112A
:1004400040EA014108FB0EF0884202FA06F20BD99D
:100450001CEB010108F1FF3A80F08880884240F2ED
:100460008580A8F102086144091AA4B2B1FBF9F031
:1004700009FB101144EA014100FB0EFE8E4508D92C
:100480001CEB010100F1FF346CD28E456AD90238B1
:10049000614440EA0840A0FB0294A1EB0E01A14296
:1004A000C846A64656D353D05DB1B3EB080261EB04
:1004B0000E0101FA07F722FA06F3F1401F43C5E9DE
:1004C000007100263146BDE8F087C2F12003D84014
:1004D0000CFA02FC21FA03F3914001434FEA1C4756
:1004E0001FFA8CFEB3FBF7F007FB10360B0C43EA48
:1004F000064300FB0EF69E4204FA02F408D91CEBF8
:10050000030300F1FF382FD29E422DD902386344F5
:100510009B1B89B2B3FBF7F607FB163341EA034195
:1005200006FB0EF38B4208D91CEB010106F1FF38E4
:1005300016D28B4214D9023E6144C91A46EA0046DB
:1005400038E72E46284605E70646E3E61846F8E66D
:100550004B45A9D2B9EB020864EB0C0E0138A3E7B6
:100560004646EAE7204694E74046D1E7D0467BE797
:10057000023B614432E7304609E76444023842E70F
:10058000704700BF014B01221A707047FF01002025
:10059000D0B50024AEB02146442206A802F068FC83
:1005A0002146542218A8CDE90044CDE90244049420
:1005B00002F05EFC01F0DCF8264AD2F8903023F01D
:1005C0001803C2F89030142306930123CDE91133A8
:1005D000089328210723CDE913130223CDE915330E
:1005E000109360230E930122002306A8CDE90C236B
:1005F000002601F0AFF9002704210F2203236846EB
:10060000CDE90023CDE90267049401F0B5FC4FF079
:100610008053CDE920672A9344F203060127012283
:100620001423CDE91867CDE91A2318A802224FF048
:10063000807307260227CDE91E23CDE91C6701F050
:10064000E9FD4FF4007001F0A3F801F033FF2EB084
:10065000D0BD00BF001002402DE980484FF00009D6
:1006600091B000F0E9FAFFF793FFCDE90699CDE9E3
:100670000899994BCDF82890D96C9848DFF89CB22E
:10068000974E984FDFF898A2DFF8988241F0040166
:10069000D964D96C01F0040103910399D96C41F03C
:1006A0000101D964D96C01F0010104910499D96C5C
:1006B00041F00201D964DB6C9FED858B03F00203EE
:1006C0004A4605930821059B082401F041F80125BD
:1006D00006A98248CDE906458DED088B00F05CFF48
:1006E000814B824A1A6004225A6183ED0A8B0122EF
:1006F000A3F818901846DA61C3E90199C3E9039990
:1007000083F8209083F83090C3F8349083F83890C1
:10071000CDE90699CDE90899CDE90A9900F0C0FA2A
:10072000714B734A734D744C18460623CDE906236A
:1007300000227F23CDE9082306A900230422CDE966
:100740000A2300F089FB2422494606A802F090FB08
:100750006A4BCBF80030584600F054FE06A94A46D2
:1007600058468DED068B8DED088BCDF8289000F066
:100770005FFE4FF4E133C6E901390C23C6E90539C0
:1007800030465F4B3360C6E90399C6E90799C6F85E
:10079000249002F0E3F85B484FF4E13343600C230C
:1007A0004361594B0360C0E90299C0E90699C0E969
:1007B0000899C0F8109002F0D1F849464A46262020
:1007C00000F0BAFD262000F0F5FDC82000F056FA32
:1007D0004E4B1A684E4BA3FB02129209019201F094
:1007E0005FF84B4B4B49A3FB00239B09019A38460A
:1007F00002F046FB39468AF8000082B2C823304630
:1008000002F044FA2B784FF00009012B8AF800908F
:1008100088F8009087F8009018BF84F8009031D1D4
:10082000CB46012204EB0901304601F04BFE14F9DE
:10083000092009F101030A2ADAB23DD029780129F9
:100840004FFA83F9EDD04FF0000B04F809B023788C
:1008500088F80020DBB9AAB12F49384602F010FB16
:100860003846FFF7B5FC4FF0FF0982B2C82339467E
:10087000304602F00BFA4A460021384602F0F8FAF8
:100880008AF800901548082100F068FFBAE71A4876
:10089000FFF79EFC4FF0FF0982B217491948C823A1
:1008A00002F0F4F94A461448594602F0E1FA98F881
:1008B00000208AF80090CEE785F800B02B7809F187
:1008C0000109012B5FFA89F24FFA89F9A9D0BAE739
:1008D000000000000000000000100240000400487A
:1008E00008030020000000209002002000000450B7
:1008F00000018021FF010020000100200074004061
:10090000003801408803002000440040000200201D
:10091000D34D621074370008A0370008F40200209D
:100920008C020020080400200A4B1A6E42F00102DB
:100930001A661A6E82B002F001020092009A9A6D55
:1009400042F080529A659B6D03F080530193019BA6
:1009500002B070470010024000B51B4A016889B020
:1009600000239142CDE90233CDE90433069302D04E
:1009700009B05DF804FB03F1804303F504339FEDF8
:10098000107BDA6C42F40052DA64DA6C02F4005242
:100990000092009ADA6C42F00102DA64DB6C03F038
:1009A0000103019302A94FF090408DED027B019B62
:1009B00000F0F2FD09B05DF804FB00BFAFF300806A
:1009C000080000000B0000000000045000000000C0
:1009D00000B51B4A016889B000239142CDE902337A
:1009E000CDE90433069302D009B05DF804FB03F1AE
:1009F000804303F504339FED107B9A6D42F0005263
:100A00009A659A6D02F000520092009ADA6C42F0F8
:100A10000102DA64DB6C03F00103019302A94FF0D9
:100A200090408DED027B019B00F0B6FD09B05DF8B2
:100A300004FB00BFAFF300801000000003000000C3
:100A4000007400400000000030B50368364A8BB0E7
:100A500000249342CDE90444CDE90644089404D02F
:100A6000324A93422BD00BB030BD314B1A6E42F458
:100A700080421A661A6E02F480420092009ADA6C82
:100A800042F00102DA64DB6C9FED257B03F0010389
:100A9000019304A9072303224FF09040CDE90723D7
:100AA0008DED047B019D00F077FD22462146252037
:100AB00000F042FC252000F07DFC0BB030BD1C4B4B
:100AC0009A6D42F400329A659A6D02F400320292F5
:100AD000029ADA6C42F00102DA64DB6C03F0010383
:100AE000039304220223CDE90423032404A907234A
:100AF0004FF09040039A0893079400F04DFD4FF497
:100B000000420223CDE9042304A9002203234FF06D
:100B10009040CDE90623089400F03EFD0BB030BDB7
:100B200000060000020000000038014000440040C0
:100B300000100240704700BFFEE700BFFEE700BFA5
:100B4000FEE700BFFEE700BF704700BF704700BF71
:100B5000704700BF00F080B8014801F085BD00BFBC
:100B6000080300200B4A08B50346106828B1034467
:100B700069468B4207D8136008BD074810600344DC
:100B800069468B42F7D902F049F90C2303604FF014
:100B9000FF3008BD0C040020240400201149124B32
:100BA000D1F8882042F4700210B4C1F888201A6885
:100BB000002042F001021A6098601A6822F0A852E0
:100BC0004FF4805422F410221A60DC601A684FF04F
:100BD000006422F480221A6098618C605DF8044BF6
:100BE000704700BF00ED00E00010024038B50F4B29
:100BF0001B780BB9012038BD0D494FF47A720546B8
:100C0000B2FBF3F30868B0FBF3F000F0E1FB04463D
:100C10000028EFD10F2DEDD8024629464FF0FF30C6
:100C200000F08AFB034B20461D6038BD0402002003
:100C3000000200200802002010B5032000F06AFB2B
:100C40000020FFF7D3FF10B10124204610BD044659
:100C5000FFF76AFE204610BD034A044B11681B785B
:100C60000B441360704700BF1004002004020020F2
:100C7000014B1868704700BF1004002038B50446C7
:100C8000FFF7F6FF631C054602D0044B1B781C449B
:100C9000FFF7EEFF431BA342FAD338BD0402002046
:100CA00030B583B000230193002800F0AF80456D7C
:100CB0000446002D00F08680226893689B0005D5CD
:100CC000936823F0204323F03F0393609368DD0093
:100CD00017D45C4B91681B685B4821F010419B095D
:100CE00021F03F01A0FB03039B0941F0805191607B
:100CF0000193019B2BB1019B013B0193019B002BB5
:100D0000F9D19368D8004FD4636D43F01003636545
:100D1000A36D01200343A365936813F0040F636D73
:100D200049D1D90647D4636D23F4817343F002039C
:100D300063659368DB070AD4444B9B68DD0706D4E0
:100D4000434965688B6823F47C132B438B60E5680B
:100D5000636B94F820102B43A5682B43657E012913
:100D600043EA453343EA01434BD0A16A21B1E56A26
:100D700001F4707129430B43D568364929400B4370
:100D8000D3609368590723D593682369012B40D01A
:100D9000136B23F00F031363636D23F0030343F01E
:100DA0000103636503B030BD936813F0040F4FF087
:100DB0000000636DB5D0636D012043F010036365DF
:100DC00003B030BDFFF7C8FDA56584F8505073E748
:100DD00093681B07D9D4D16894F83030257E21F46C
:100DE00080415B0021F0020143EA85330B43D3606D
:100DF00094F83830012B14D0136923F001031361E8
:100E0000C3E7616A013943EA4143AEE7012003B019
:100E100030BD116BE36921F00F01013B0B431363FC
:100E2000BAE71169E36B256C21F4FF6121F004013D
:100E30002B430B43616C0B43A16C0B4343F0010349
:100E40001361A2E700020020632D3E05000004505C
:100E50000003045007C0F0FFF0B590F8502083B0B5
:100E60000346012A4FF00000019000F02E811C681B
:100E7000012083F85000A26812F004025AD1486899
:100E8000052840F2978082094FF01F0E00F01F00E6
:100E90000EFA00FE02F00C026FEA0E060D6804F175
:100EA000300EC5F3846C5EF802500CFA00F0F44684
:100EB00005EA060E40EA0E004CF80200A26856074A
:100EC00046D5A2680868A268D507064613D4CF683D
:100ED000B34AD4F8B05007F0180C22FA0CF2C0F361
:100EE000120C024025EA0C052A43C4F8B020AD4A92
:100EF000974200F09980AC4A164227D0AB4AAC49E1
:100F000090688E4200F0E0751DD0AA498E4200F034
:100F1000DF80A9498E4219D110F4800016D1A7496B
:100F20008C4213D1916821F0E071294341F4800192
:100F3000916003E05A6D42F020025A65002283F866
:100F4000502003B0F0BD010240F1FA800020F5E727
:100F5000A268120766D408688A68C60D06F00406FF
:100F600004F11405C0F3045002FA00F74FF0070C27
:100F700072590CFA00F022EA00023A4372510E69EB
:100F8000E268042E1ED004F16007C2F3C1025000D3
:100F900057F826C00A688A4D02F0F8420CEA0505A7
:100FA00015434A6982402A4342F0004247F826200E
:100FB000086888E70238032800F2A481DFE800F01F
:100FC000999EA3A80868226E226EC0F31205C2F390
:100FD0008462002D40F0FA80C0F38465AA4200F0DC
:100FE0004A81626E666E04F16002C6F3846604F1A3
:100FF0006407AE4200F065819668966802F10807C2
:10100000C6F38466AE4200F04A81D668D66802F123
:101010000C07C6F3846295427FF455AF3A6822F01C
:1010200000423A6008684EE7BCF1000F78D090FAB1
:10103000A0F2002A00F0FB80B2FA82F2013202F044
:101040001F02092A40F2F38090FAA0F2002A00F071
:101050004A81B2FA82F20132920602F0F84290FA24
:10106000A0F5002D00F04481B5FA85F5013505F0B5
:101070001F05012606FA05F5154390FAA0F0002891
:1010800000F03481B0FA80F0421C02F01F006FF0D3
:101090001D06032212FB0062120542F000722A4371
:1010A000D60D886806F0040604F11405C2F3045254
:1010B00000FA02F74FF0070C70590CFA02F220EA1E
:1010C00002023A4372510E6815E7022003B0F0BDE8
:1010D00010F080707FF43AAFA1F1F7418C427FF4B9
:1010E00035AF916821F0E071294341F08071916042
:1010F00024E70C2048606FF4F836CFE612204860F1
:101100006FF4F806CAE6182048606FF0F856C5E696
:101110004FF480724A6000206FF01F060422BDE683
:10112000800E013000F01F06092E2AD88506012204
:10113000B24005F0F845154306EB46021205AEE74E
:101140001E498C427FF402AF91681E4821F0E07185
:10115000294341F40001916002681B499209A1FBF7
:101160000212920902EB420292000192019A002AB5
:101170003FF4ECAE019A013A0192019A002AF9D1AA
:10118000E4E606EB460285061E3A012005F0F84526
:10119000120500FA06F642F0007235437FE700BF01
:1011A000FFFF070000007F4000000880000304509C
:1011B000000052C7000084CB0100008000000450F2
:1011C00000F0FF0300020020632D3E0590FAA0F519
:1011D0001DB1B5FA85F5AA424DD0626E666E04F176
:1011E0006002C6F3846604F1640790FAA0F51DB1AD
:1011F000B5FA85F5AE4264D09568966802F10807A5
:10120000C6F3846690FAA0F51DB1B5FA85F5AE4235
:1012100045D0D568D56802F10C07C5F3846290FA11
:10122000A0F5002D3FF44FAEB5FA85F5F3E690FA40
:10123000A0F2002A63D0B2FA82F20132920602F0E2
:10124000F84290FAA0F5002D57D0B5FA85F5013592
:1012500005F01F05012606FA05F5154390FAA0F0E2
:10126000002847D0B0FA80F0013000F01F0000EBFA
:101270004000020513E7206E224620F0004042F8AD
:10128000600F606E0868666EC0F3120504F16407B3
:10129000C6F38466002DA8D1C0F38465A9E638683A
:1012A00020F000403860D068086802F10C07D2686E
:1012B000C0F31205C2F38462002DB0D1C0F384657F
:1012C000A9E6386820F000403860906808689668A1
:1012D000C0F3120502F10807C6F38466002D91D110
:1012E000C0F384658EE64FF08062B8E6084AD6E621
:1012F0000225C1E64FF44012D1E60225ADE74FF0DA
:1013000080629EE7062048606FF4F866C6E500BF7D
:10131000000050FE0749CA6803024FF6FF0003F4BD
:10132000E0630240134343F0BF6343F40033CB60F8
:10133000704700BF00ED00E01C4BDB68C3F30223E5
:1013400000B5C3F1070EBEF1040F03F1040C28BF72
:101350004FF0040EBCF1060F1BD9033B4FF0FF3CCE
:101360000CFA03FC22EA0C024FF0FF3C0CFA0EFCD4
:1013700021EA0C019940002841EA02010CDB00F14E
:101380006040090100F56140C9B280F800135DF8C2
:1013900004FB00221346E7E7054B00F00F000901AC
:1013A0000344C9B219765DF804FB00BF00ED00E00C
:1013B000FCEC00E0002808DB044A4109012300F0AE
:1013C0001F0003FA00F042F82100704700E100E03E
:1013D0000138B0F1807F10D210B44FF0E023084CF8
:1013E00058614FF0F00C84F823C00022072110460A
:1013F0009A615DF8044B196170470120704700BF86
:1014000000ED00E088B110B50379044603F0FF0257
:101410003BB1002302210122217123612271184670
:1014200010BD4271FFF7D4FAF3E70120704700BF07
:10143000F8B54379012B064608687CD00123737107
:1014400004284FF002030C461546337138D031683A
:1014500002F010022369012B08D18D6B63691F27ED
:101460009740934025EA07052B438B63D4E9023567
:101470002B43034307256068CC6B954024EA0504A1
:1014800093402343CB630B684FF48044944023EA9A
:1014900004030B600B6840F6FC749440904023EA10
:1014A000040303430B600B68C02000FA02F200241F
:1014B00023EA020201230A60337174712046F8BDE9
:1014C000FFF7D6FB07462DB114E0FFF7D1FBC31B96
:1014D000012B32D833685B6B1B04F6D40120FFF775
:1014E000CDFB3168A3690B640EE0FFF7C1FBC31BA2
:1014F000012B22D833685B6B002BF6DB0120FFF752
:10150000BDFB3168A3694B6405F010028B6CE06988
:1015100040F2FF359540904023EA050303438B6476
:10152000CB6C206AFF259540904023EA05030343D6
:10153000CB6420688EE70220F8BD3369032243F0B4
:101540000803336132711046F8BD00BF90F82520C2
:10155000022A03D00422C263012070470168426C52
:1015600010B50C6824F00E040C600C6824F0010423
:101570000C6002F01C02046C012101FA02F26260AC
:10158000826B80F82510002480F8244012B1904727
:10159000204610BD104610BD2DE9F04F0D6883B0F8
:1015A000002D00F0C3800022654E13468C4670E08B
:1015B000D0F80C80DCF80840032707FA02F99440C1
:1015C00028EA090844EA0804C4606FEA0904D0F86C
:1015D000008008EA040801F00304944044EA080487
:1015E0000460CC004FD5574C2746246E44F00104CC
:1015F0003C663C6E04F001040194019C23F003045A
:1016000004F1804404F5803403F00308D4F8089012
:101610004FEA88080F2707FA08FAB0F1904F29EA35
:101620000A090CD0484FB84200F08380474FB842B7
:101630000CBF0227072707FA08F849EA0809C4F887
:10164000089034686FEA0E08CF0354BF08EA040418
:101650004EEA0404346074688F0354BF08EA04043B
:101660004EEA04047460B468CF0254BF08EA04046C
:101670004EEA0404B460F468890254BF08EA040422
:101680004EEA0404F460013335FA03F102F1020278
:101690004CD0012101FA03F818EA050EF3D0DCF86A
:1016A000041021F0100909F1FF34012C80D8D0F882
:1016B00008A0DCF80C40032707FA02FB2AEA0B0A11
:1016C000944044EA0A0484604468DCF8087024EA20
:1016D0000808C1F300149C4044EA08044460C4684C
:1016E00007FA02F824EA0B0A48EA0A08B9F1020FDD
:1016F0006FEA0B04C0F80C807FF469AF4FEAD3099E
:10170000DCF8107000EB890903F007084FEA88083D
:1017100007FA08FBD9F820A00F2707FA08F82AEAE9
:1017200008084BEA080BC9F820B050E703B0BDE841
:10173000F08F012707FA08F849EA08097FE700BF98
:101740000004014000100240000400480008004866
:101750000AB1816170478162704700BF436901EA45
:10176000030221EA030141EA02418161704700BF9F
:10177000024A136843F4807313607047007000409E
:10178000024B186800F4C060704700BF0070004052
:10179000B0F5007F0ED01C4A136803F4C063B3F5A4
:1017A000806F2DD0136823F4C06343F4806300205E
:1017B0001360704714490B6803F4C063B3F5007FEE
:1017C0001ED00B68114A124823F4C06343F400731F
:1017D0000B601368322202FB03F34A69A0FB030388
:1017E0009B0C500503F1010306D500E023B14A69C3
:1017F000520503F1FF33F9D4034B5B695B0501D458
:101800000020704703207047007000400002002055
:1018100083DE1B4330B5204DAB6DDB0083B0044647
:101820001CD5FFF7ADFFB0F5007F29D0802C13D871
:101830002FD0A4F17004B4FA84F4640917490B683A
:1018400023F0070323430B60086800F00700001B28
:1018500018BF012003B030BD0324EFE7AB6D43F0A8
:101860008053AB65AB6D03F080530193019BFFF791
:1018700087FFAB6DB0F5007F23F08053AB65D5D10A
:10188000802C04D9A02C8CBF02240124D6E700248C
:10189000D4E70224D2E700BF00100240002002403B
:1018A000284A9368D26813F00C0308D00C2B38D068
:1018B000042B34D0082B244818BF00207047214A3D
:1018C0001168090754BFD2F8942012681F4954BF09
:1018D000C2F30322C2F3031251F8220003B30C2B0C
:1018E0002DD1184BDB6803F00303022B25D0164AD9
:1018F000032B08BF1046134BD968DA68DB68C3F3C3
:101900004163C2F30622C1F30211013302FB00F06E
:1019100001315B00B0FBF1F0B0FBF3F070470C4815
:10192000704702F00302012AC9D0064BDB6803F0BE
:101930000303022B4FF00000D9D10548DBE700205C
:10194000704700BF0010024000127A00C437000840
:101950000024F400002800F039822DE9F043994A70
:1019600003689568D6680446D80683B005F00C0570
:1019700006F003062ED5002D00F02B810C2D00F073
:101980002581A3698F4F002B00F09B813B6843F0BA
:1019900001033B60FFF76CF9804606E0FFF768F94A
:1019A000A0EB0800022800F29C813B689B07F5D55C
:1019B0003B6843F008033B603B68226A23F0F00376
:1019C00013433B607B68E26923F47F4343EA0223CD
:1019D0007B602368D90700F1CB80990723D5042DBC
:1019E00000F05F810C2D00F05981E368754E002BEB
:1019F00000F09281336843F480733360FFF738F965
:101A0000074605E0FFF734F9C01B022800F26981A0
:101A100033685B05F6D57368226923F0FE4343EA19
:101A2000026373602368190719D56369654E002B3B
:101A300000F02081D6F8943043F00103C6F89430CA
:101A4000FFF716F9074605E0FFF712F9C01B022859
:101A500000F24781D6F894309A07F5D523685F07DE
:101A60003FD5584B9A6DD60000F154819A6D42F0E3
:101A700080529A659B6D03F080530193019B012670
:101A8000514F3B68D80540F1A381A368012B00F0BA
:101A90005581052B00F0C7814A4FD7F8902022F0DE
:101AA0000102C7F89020D7F8902022F00402C7F86E
:101AB0009020002B40F04981FFF7DAF841F2883995
:101AC000804606E0FFF7D4F8A0EB0800484500F296
:101AD0000881D7F890309B07F4D4002E40F08A811B
:101AE0002368980618D5636A364E002B00F05A8199
:101AF000D6F8983043F00103C6F89830FFF7B8F8ED
:101B0000074605E0FFF7B4F8C01B022800F2E980A1
:101B1000D6F898309907F5D5A36A2BB3022B00F0BD
:101B200090810C2D00F09680264B1A6822F080726E
:101B30001A601A68120103D4DA6822F00302DA602C
:101B4000204CE36823F0887323F48033E360FFF7CD
:101B50008FF8054605E0FFF78BF8401B022800F2DE
:101B6000C08023689B01F6D4002003B0BDE8F08359
:101B7000082D75D00C2D71D06368B3F5803F00F04F
:101B8000B480B3F5A02F00F041810E4F3A6822F4E3
:101B900080323A603A6822F480223A60002B40F0AA
:101BA000A980FFF765F8804606E0FFF761F8A0EB33
:101BB0000800642800F295803B689803F5D42368F8
:101BC0000BE700BF0010024000700040012E7FF4C0
:101BD000D8AEA74B1B68990739D4A54B206A1A6861
:101BE000120756BFD3F894301B681B0903F0F003AB
:101BF000984200F2BF809E4B1A6842F008021A60B9
:101C00001A6822F0F00202431A605A68E16922F46D
:101C10007F4242EA01225A60002D00F0F180FFF776
:101C20003FFE934B934A9B68C3F30313D35C924AE2
:101C300003F01F0320FA03F31068904A1360FEF7C5
:101C4000D5FF40B92368D9077FF5C7AE90E7A369F0
:101C5000002BC2D1012003B0BDE8F083032E8BD14D
:101C6000834A126892037FF5B8AE6268002A7FF457
:101C7000B4AEEFE7D6F8943023F00103C6F8943001
:101C8000FEF7F6FF074604E0FEF7F2FFC01B02284E
:101C900027D8D6F894309B07F6D4DFE6022E7FF4DF
:101CA000A4AE734A1268520502D5E268002AD1D068
:101CB0006F4920694A6822F0FE4242EA00624A60A7
:101CC000B1E63B6823F001033B60FEF7D1FF80469D
:101CD0003B689807B6D5FEF7CBFFA0EB08000228BB
:101CE000F6D9032003B0BDE8F083614A136843F4DA
:101CF00080331360FEF7BCFFDFF87481074604E011
:101D0000FEF7B6FFC01B6428EBD8D8F800309B0361
:101D1000F6D554E70026B3E6336823F480733360C6
:101D2000FEF7A6FF074604E0FEF7A2FFC01B02284D
:101D3000D7D833685805F7D4236874E64C4AD2F8EC
:101D4000903043F00103C2F89030FEF791FFDFF8C6
:101D50002081074641F2883904E0FEF789FFC01B65
:101D60004845BED8D8F890309A07F6D5002E3FF4F3
:101D7000B7AE3FE0FFF74EFD00287FF46BAF3C4B62
:101D80001A6842F008021A601A68216A22F0F0020A
:101D90000A431A605A68E16922F47F4242EA01224A
:101DA0005A603CE7D6F8983023F00103C6F8983023
:101DB000FEF75EFF074604E0FEF75AFFC01B02284D
:101DC0008FD8D6F898309A07F6D4A5E60120704748
:101DD0003B6843F480733B60FEF74AFF80463B68F4
:101DE000D9053FF552AEFEF743FFA0EB08000228ED
:101DF000F5D976E71E4A936D23F0805393656FE61D
:101E0000FFF708FD00283FF40AAF23E703F1804302
:101E1000A3F53C331A6842F480221A601A6842F42F
:101E200080321A6066E7124BD3F8902042F0040229
:101E3000C3F89020D3F8902042F00102C3F890201C
:101E400083E70B4EE26AF36803F00301914251D03D
:101E50000C2D3FF4FFAE064D2B685B013FF5FAAE4B
:101E60002B6823F080732B60FEF702FF06460DE01F
:101E700000100240AC3700080802002000020020D9
:101E8000FEF7F6FE801B02283FF62BAF2B689F0162
:101E9000F6D4E968364BE26A206B364E0B401343AA
:101EA000D4E90D1243EA012343EAC263D4E90F12D5
:101EB0000138490843EA00130139520843EA415303
:101EC000013A43EA4263EB602B6843F080732B6076
:101ED000EB6843F08073EB60FEF7CAFE044605E052
:101EE000FEF7C6FE001B02283FF6FBAE33689D01DD
:101EF000F6D539E6216B03F070020139B2EB011F10
:101F0000A6D1616B03F4FE42B2EB012FA0D1A16B0D
:101F100003F07842B2EBC16F9AD1E26B520803F43E
:101F2000C001013AB1EB425F92D1226C520803F03A
:101F3000C063013AB3EB426F8AD1336898013FF531
:101F400013AE336843F080733360F36843F08073FB
:101F5000F360FEF78DFE044605E0FEF789FE001BE8
:101F600002283FF6BEAE33689901F6D5FCE500BF06
:101F70008C809D0100100240002800F08180454ABD
:101F8000136803F007038B422DE9F0410D46044628
:101F90000CD2136823F007030B431360136803F09C
:101FA00007038B4202D00120BDE8F0812368DA07E5
:101FB0003FD4990706D53849A0688A6822F0F00214
:101FC00002438A6033490A6802F00702AA4209D92B
:101FD0000A6822F007022A430A600A6802F0070230
:101FE000AA42E0D15A0706D52B49E0688A6822F454
:101FF000E06202438A601B0707D5274A216993687C
:1020000023F4605343EAC1039360FFF749FC224A7B
:10201000224C92682249C2F303120346A25C214873
:1020200002F01F02D340BDE8F04100680B60FEF7EC
:10203000DDBD6268184B032A1B6823D0022A1CD01E
:102040002ABB9E07AFD5144EB36823F00303134396
:10205000B360FEF70DFE41F28838074604E0FEF754
:1020600007FEC01B404510D8B368626803F00C033C
:10207000B3EB820FF3D123689BE79F03E3D492E78E
:10208000012070479B01DED48DE703208CE75805C3
:1020900089D5D8E70020024000100240AC37000884
:1020A0000002002008020020054B064A9B680649F2
:1020B000C3F302230868D35C03F01F03D8407047C2
:1020C00000100240BC37000800020020054B064A01
:1020D0009B680649C3F3C2230868D35C03F01F035F
:1020E000D840704700100240BC37000800020020B2
:1020F000F8B5474BDA68920704460F4607D0DA680E
:10210000016802F003028A424BD00120F8BD00684A
:10211000022857D003284ED00128F6D11B689B0710
:10212000F4D53B4AD36823F0730318436368013B3B
:1021300040EA0310D060364D2B6823F080632B609B
:10214000FEF796FD064604E0FEF792FD831B022B88
:102150003CD82B681A01F7D4002F39D1D4E90213E7
:102160002A69DB0622F0784243EA012322F4FE4288
:1021700013432B61264D2B6843F080632B60FEF7E1
:1021800077FD064604E0FEF773FD831B022B1DD886
:102190002B681B01F7D52B69A269134300202B6123
:1021A000F8BD002AB1D0DB684268C3F302130133E3
:1021B0009342AAD1BFE71A689503B2D41B685903AA
:1021C000A3D5AEE71B685E059FD5AAE70320F8BD3F
:1021D000012F2B690DD06269A16823F0C0635208FA
:1021E00023F4FE43013A43EA012343EA42632B61AD
:1021F000C0E72269A16823F4C003520823F4FE4318
:10220000013A43EA012343EA42532B61B2E700BF9C
:10221000001002402DE9F043036813F4006783B017
:1022200004460CD0C16BB1F5000F00F0FC80B1F595
:10223000400F00F0FD80002900F0108101279E036F
:1022400059D59A4B9A6DD50040F1E1804FF00008C6
:10225000974D2B6843F480732B60FEF709FD06460B
:1022600005E0FEF705FD831B022B00F2EB802B68D7
:10227000D805F6D5B7BB8D4DD5F8903013F4407323
:1022800027D0226D9A4225D0D5F89010D5F89030FD
:1022900043F48033C5F89030D5F8903023F4803380
:1022A000C5F8903021F44073C907C5F8903040F16B
:1022B000FA80FEF7DDFC41F28839064605E0FEF7BC
:1022C000D7FC801B484500F2BD80D5F890309B07B5
:1022D000F5D5236D7549D1F8902022F4407213434F
:1022E000C1F89030B8F1000F04D0704A936D23F01C
:1022F000805393652368DE0708D56C49206AD1F8BE
:10230000882022F003020243C1F888209D0708D5E7
:102310006649606AD1F8882022F00C020243C1F8B5
:102320008820980608D56149A06AD1F8882022F44F
:1023300040620243C1F88820990508D55B49606B6B
:10234000D1F8882022F440220243C1F888205A059F
:1023500008D55649A06BD1F8882022F440120243D8
:10236000C1F888205E0608D55049E06AD1F8882077
:1023700022F440520243C1F88820DD0508D54B49BC
:10238000206BD1F8882022F440320243C1F8882023
:1023900098040ED54549206CD1F8882022F040627F
:1023A0000243B0F1006FC1F888204DD0B0F1806FCA
:1023B00064D059030ED53D49606CD1F8882022F0D5
:1023C00040620243B0F1006FC1F8882041D0B0F103
:1023D000806F5CD05A040BD53448A16CD0F88820AB
:1023E00022F040520A43B1F1805FC0F888203CD00F
:1023F0001B0408D52D4AE16CD2F8883023F08043C5
:102400000B43C2F88830384603B0BDE8F0839A6DBC
:1024100042F080529A659B6D03F080530193019BBB
:102420004FF0010814E72148C26842F48032C260CC
:102430001E48D0F8882022F440021143C0F88810CA
:102440000027FCE603274DE7CA6842F48012CA6001
:10245000AFE7CA6842F48012CA60BBE70430FFF7F6
:1024600047FE0746E0B12368E9E60221201DFFF799
:102470003FFE23680028BBD00746B9E70121201D95
:10248000FFF736FE2368002893D0074691E7012125
:10249000201DFFF72DFE236800289BD0074699E7F3
:1024A000E16B2368C4E7134614E700BF0010024045
:1024B00000700040024A136843F004031360704741
:1024C00000100240836F202B37D1002933D0002A1F
:1024D00031D090F87030012B2FD0836810B40124D4
:1024E00080F87040B3F5805F4FF000044165A0F8BC
:1024F0005820A0F85A20046621D0002B2FD1036960
:10250000002B3FD07F23A0F85C300268234C2223AD
:102510000021C1678367936843F001039360002340
:1025200080F870301168046641F4907118465DF8C7
:10253000044B116070470120704702207047036907
:102540009BB90268C367222181679368144C40F2EB
:10255000FF1143F00103A0F85C109360DFE7B3F1D3
:10256000805F13D0A0F85C40CFE70268C4672223E5
:1025700083679368094CFF2143F00103A0F85C10C6
:102580009360CCE7FF23A0F85C30BEE70369002B23
:10259000B8D03F23A0F85C30B7E700BFA9250008FA
:1025A00009260008704700BF826F222A026805D002
:1025B000138B9BB243F0080313837047928CB0F8DF
:1025C0005CC0416D02EA0C020A70B0F85A20416DFD
:1025D000013A92B2A0F85A20B0F85A20013192B2D2
:1025E000416502B17047016810B50C6824F490741D
:1025F0000C608C6824F001048C60202181670266E5
:10260000FDF7C0FF10BD00BF826F222A06D002680E
:10261000138B9BB243F008031383704710B5046813
:10262000B0F85C10A28C0A40416D21F8022BB0F882
:102630005A204165013A92B2A0F85A20B0F85A20C7
:1026400092B202B110BD216821F490712160A1689D
:1026500021F00101A160202181670266FDF792FF50
:1026600010BD00BF704700BF0268D369116840F613
:102670000F0C13EA0C0F70B5956804461AD19E062C
:1026800002D58E0600F18280DE0202D5680200F1DA
:1026900081801E0605D4580602D54B0600F18680BF
:1026A00070BD0D06F7D5636E002BF9D02046BDE84E
:1026B00070401847494805F0010608403043E3D010
:1026C000DD0707D5C80505D501201062E06F40F091
:1026D0000100E0679D0754D56EB102201062E06FE3
:1026E00040F00400E067580705D504201062E06F51
:1026F00040F00200E067180709D501F020003043E0
:1027000005D008201062E06F40F00800E0671E0569
:1027100008D54D0106D54FF400601062E06F40F01F
:102720002000E067E06F0028BAD0980601D589063E
:1027300048D4E56F936805F0280503F040031D4376
:1027400047D0136823F4907313609368202023F01C
:1027500001039360A067936800215B06216621D581
:102760009368E06E23F040039360D8B11C4B836301
:10277000FEF7ECFE002893D0E06EBDE87040836B5E
:1027800018475D07B7D5002EAFD1B4E7036E002B15
:102790008DD185E74FF4801320461362BDE8704069
:1027A00000F010BB2046FFF75DFF70BD13682020CE
:1027B00023F0400300211360606761662046FFF745
:1027C000F1FE70BD236E002BB3D0204698472268DF
:1027D000AFE72046FFF746FFE56770BD2001000424
:1027E000E527000808B5806A0023A0F85A30A0F851
:1027F0005230FFF737FF08BD436ADA0710B406D539
:102800000168846A4A6822F4003222434A609C07C5
:1028100006D50168C46A4A6822F4803222434A60BD
:10282000590706D50168046B4A6822F480222243C6
:102830004A601A0706D50168446B4A6822F40042D0
:1028400022434A60DC0606D50168846B8A6822F45C
:10285000805222438A60990606D50168C46B8A6853
:1028600022F4005222438A605A0609D50168046C9A
:102870004A6822F480122243B4F5801F4A600BD0CC
:102880001B0606D50268816C536823F400230B43B2
:1028900053605DF8044B70474A68446C22F4C002F0
:1028A00022434A60ECE700BF38B500230446C36703
:1028B000FEF7DEF923681A681107054609D41A687D
:1028C00052072AD40020202384F870006367A3678E
:1028D00038BDDA699202F2D4FEF7CAF9431BB3F1AC
:1028E000007F23682AD21A685007F2D5DA691105E9
:1028F000EFD54FF400621A62196821F4D0711960A3
:102900009968002521F001019960202284F8705017
:1029100062670320A267E26738BDDB695802D1D441
:10292000FEF7A6F9431BB3F1007F236806D21A68AD
:102930005107F2D5DA691205EFD5DAE71A6822F401
:10294000D0721A609A68002522F001029A60202154
:1029500084F8705061670320A16738BD002800F03B
:10296000DE8038B5436F0446002B55D023682069BC
:102970006569242262671968A26821F00101196063
:1029800002432A43E0691D688C49024329400A43F7
:102990001A605A68E16822F440520A4388495A6032
:1029A0008B42A26999683CD0256A21F430612A43A0
:1029B0000A4384499A608B4208D0834A934200F0CC
:1029C000A6800023C4E91833012038BD7F4BD3F81B
:1029D000883003F00303013B022B5AD87C4AD35CB6
:1029E000B0F5004F00F0A780082BEAD801A252F8FA
:1029F00023F000BFD52A00089B2A0008DB2A000824
:102A0000C3290008CF2A0008C3290008C3290008E9
:102A1000C3290008312B000880F87030FEF714F845
:102A2000A4E721F4306169480A439A60D0F88830FD
:102A300003F44063B3F5006F78D008D8002B70D052
:102A4000B3F5806FBDD1FEF72BFF48B304E0B3F5BB
:102A5000406FB6D14FF40040626802EB42038342FC
:102A6000AFD8B0EB023FACD8002553084FF4807CC0
:102A70002946E0FB0C3118462B46FDF701FC554B6F
:102A8000A0F540729A429CD82368D860C4E91855D2
:102A900009E0B0F5004F00F08880FFF717FBE8B9B8
:102AA0000023C4E91833636A6BBB23685A6822F4B5
:102AB00090425A609A6822F02A029A601A6842F09C
:102AC000010220461A60BDE83840FFF7EDBEFEF770
:102AD000E7FEE4E7FFF7E8FAE1E73F48636800EB69
:102AE0005300B0FBF3F080B24FF6EF72A0F1100389
:102AF00093423FF666AF22680023D060C4E91833E2
:102B0000636A002BD1D02046FFF776FECDE72F4B2E
:102B1000324AD3F8883003F00C03D35C60E701201D
:102B20007047FFF7C1FA0028BAD095E72A4893E723
:102B30004FF40040D2E7082B3FF643AF01A252F812
:102B400023F000BFA52B0008AB2B0008B12B000819
:102B5000C3290008692B0008C3290008C3290008FD
:102B6000C3290008B52B0008FEF79AFE002897D06D
:102B70004300626803EB5203B3FBF2F39AB2A2F193
:102B800010004FF6EF7188423FF61BAF23F00F03A2
:102B900020689BB2C2F3420200211343C360C4E920
:102BA000181180E7FFF780FAE0E7FFF78FFADDE71B
:102BB0000B4BDEE74FF48033DBE700BFF369FFEF39
:102BC00000800040003801400044004000100240F6
:102BD000F4370008FFFC0F000024F400F837000869
:102BE0000048E8012DE9F843DDF820900468064626
:102BF000884615461F46B9F1FF3F0AD1E36938EA16
:102C000003030CBF012300239D42F7D00020BDE841
:102C1000F883E36938EA03030CBF012300239D42D4
:102C2000F4D1FEF725F8C01B48451DD8B9F1000FB7
:102C30001AD0346823685A07DDD5E3691B05DAD555
:102C40004FF400632362226822F4D0722260A268EB
:102C50002023002122F00102A2600320736786F87E
:102C60007010B367F367D2E733681A6822F4D07242
:102C70001A609A682021002422F001029A60032041
:102C8000716786F87040B167C1E700BF2DE9F04772
:102C90000546406F202882B075D18A46002945D06C
:102CA0001446002A42D01E4695F87030012B6AD097
:102CB000012385F870304FF000082123C5F87C808F
:102CC0006B67FDF7D5FFAB68A5F85040B3F5805FA3
:102CD000A5F8524007465AD0B5F8523000229BB2B0
:102CE00085F87020B3B12C68721C23D1E2691306F9
:102CF000FCD5BAF1000F41D01AF8013B2385B5F895
:102D00005230013B9BB2A5F85230B5F852309BB21D
:102D1000002BE9D100963B46002240212846FFF7D0
:102D200061FF00284CD120236B6700E0012002B036
:102D3000BDE8F087E36913F08009DAD1FDF798FF69
:102D4000C01B864229D346B32C6823685807CBD5CD
:102D5000E3691905C8D54FF400632362226822F4A1
:102D6000D0722260A268202322F00102A260032018
:102D70006B6785F87090AB67EB67D8E738F8023B74
:102D8000C3F30803BAE7022002B0BDE8F0872B695D
:102D9000002BA1D1D0469A469EE72B681A6822F4F0
:102DA000D0721A609A682021002422F001020320C8
:102DB0009A60696785F87040A96702B0BDE8F0873E
:102DC0000320B4E7704700BFDFF834D0FDF7E6FE1C
:102DD000002103E00B4B5B58435004310A480B4B76
:102DE00042189A42F6D30A4A02E0002342F8043B12
:102DF000084B9A42F9D300F017F8FDF72DFCFEE7D7
:102E00000000012048380008000000207002002067
:102E10007002002024040020FEE70000014B186827
:102E2000704700BF0C02002070B50D4D0D4C641BA7
:102E3000A4100026A64209D10B4D0C4C00F08EFCCC
:102E4000641BA4100026A64205D170BD55F8043BB2
:102E500098470136EEE755F8043B98470136F2E70C
:102E6000403800084038000840380008443800085E
:102E700002440346934200D1704703F8011BF9E76F
:102E80000EB400B59CB01DAB029006906FF00041EF
:102E9000094807910491094953F8042B05910068EA
:102EA000019302A900F068F8029B00221A701CB07E
:102EB0005DF804EB03B070470C0200200802FFFF2E
:102EC0002DE9F0478E689E4282460C4690461F468A
:102ED00038D88A8912F4906F32D025680969A5EB39
:102EE0000109656905EB450505EBD57501334B44D3
:102EF0006D109D4238BF1D46530531D5294600F05F
:102F000063FB064650B90C23CAF80030A38943F08E
:102F10004003A3814FF0FF30BDE8F08721694A46A6
:102F200000F0BEFAA38923F4906343F08003A381E9
:102F3000266165614E44A5EB09052660A5603E4605
:102F4000BE4200D93E4620683246414600F0B6FAFD
:102F5000A3689B1BA3602368334423600020DBE746
:102F60002A4600F0A5FB06460028E1D1216950461B
:102F700000F0BEFAC7E700002DE9F04F98468B89B4
:102F80001B069DB007460D4614460ED50B6963B966
:102F9000402100F019FB2860286120B90C233B6018
:102FA0004FF0FF30D1E040236B61002309932023D1
:102FB0008DF82930CDF80C803023DFF8A8818DF80A
:102FC0002A304FF0010923469A4613F8012B0AB123
:102FD000252AF9D1BAEB040B0BD05B4622462946D1
:102FE0003846FFF76DFF013000F0AA80099A5A4475
:102FF00009929AF80030002B00F0A28000234FF0D5
:10300000FF32CDE905230AF1010A049307938DF8F5
:1030100053301A935446052214F8011B5148FDF70A
:10302000DFF8049AD8B9D00644BF20238DF8533076
:10303000110744BF2B238DF853309AF800302A2B08
:1030400015D0079A544600204FF00A0C214611F87B
:10305000013B303B092B4ED9B0B1079214E0A0EBF5
:10306000080309FA03F313430493A246D2E7039B30
:10307000191D1B680391002BBBBF5B4242F002028B
:1030800007930793B8BF049223782E2B0CD1637853
:103090002A2B35D1039B1A1D1B680392002BB8BF46
:1030A0004FF0FF3302340593DFF8C8A021780322E4
:1030B0005046FDF795F840B14023A0EB0A0003FA13
:1030C00000F0049B03430134049314F8011B2648C9
:1030D0008DF828100622FDF783F8002838D0234BFE
:1030E0001BBB039B073323F0070308330393099BA0
:1030F0003344099367E70CFB02320C460120A5E735
:1031000000230134059319464FF00A0C204610F8AD
:10311000012B303A092A03D9002BC5D00591C3E70A
:103120000CFB012104460123F0E703AB00932A4680
:103130000F4B04A93846AFF30080421C0646D6D197
:10314000AB895B063FF52CAF09981DB0BDE8F08F49
:1031500003AB00932A46064B04A9384600F07AF8E0
:10316000EBE700BF053800080F380008000000003A
:10317000C12E00080B3800082DE9F0471646994685
:103180008A680B69DDF820809342B8BF134633602C
:1031900091F8432007460C460AB101333360236897
:1031A000990642BF336802333360256815F006057F
:1031B00006D104F1190AE36832689B1AAB4226DC97
:1031C00094F84320131E226818BF012392062BD4C3
:1031D00004F1430249463846C04701301ED02368F7
:1031E000E568326803F00603042B08BFAD1AA36834
:1031F00022690CBF25EAE57500259342C4BF9B1ADE
:10320000ED1800261A34B5421AD1002008E0012337
:10321000524649463846C047013003D14FF0FF308F
:10322000BDE8F0870135C6E7E1185A1C302081F867
:103230004300224494F8451082F843100233C7E754
:103240000123224649463846C0470130E6D00136C0
:10325000D9E700002DE9FF470F7E0C9D782F91469E
:1032600080460C469A4601F1430207D8622F0AD8DD
:10327000002F00F0D880582F00F0A38004F1420501
:1032800084F842703AE0A7F16303152BF6D801A148
:1032900051F823F0ED320008013300087D320008B8
:1032A0007D3200087D3200087D32000801330008BD
:1032B0007D3200087D3200087D3200087D32000832
:1032C0000D34000831330008EF3300087D32000868
:1032D0007D3200082F3400087D32000831330008A9
:1032E0007D3200087D320008F73300082B681A1D74
:1032F0001B682A6004F1420584F842300123A3E0F0
:1033000020682968060601F104030AD50E682B60BF
:10331000002E03DA2D23764284F843305E480A23D8
:1033200019E00E682B6010F0400F18BF36B2EFE7BF
:103330002B682068191D2960010601D51E6802E06E
:103340004606FBD51E8854486F2F0CBF08230A235E
:10335000002184F843106568A560002DA2BF216894
:1033600021F0040121600EB9002D4DD01546B6FBA9
:10337000F3F103FB1167C75D05F8017D3746BB42DA
:103380000E46F4D9082B0BD12368DE0708D5236934
:1033900061689942DEBF302305F8013C05F1FF3535
:1033A000521B2261CDF800A04B4603AA214640469D
:1033B000FFF7E2FE01304CD14FF0FF3004B0BDE822
:1033C000F087354881F845702968236851F8046B07
:1033D00029601D0614D5DF0744BF43F02003236096
:1033E0001EB9236823F0200323601023B0E723686D
:1033F00043F0200323607823284884F84530E3E72E
:10340000590648BFB6B2E6E71546BBE72B68266803
:103410006169181D286035061B6801D5196002E036
:103420007006FBD51980002323611546BAE72B6887
:103430001A1D2A601D68626800212846FCF7D0FE2C
:1034400008B1401B606063682361002384F8433047
:10345000A8E723692A4649464046D0470130ABD009
:1034600023689B0713D4E068039B9842B8BF1846B3
:10347000A4E70123324649464046D04701309BD05D
:103480000135E36803995B1AAB42F2DCEBE70025F8
:1034900004F11906F5E700BF1638000827380008C0
:1034A0000A44914200F1FF3300D1704710B511F882
:1034B000014B03F8014F9142F9D110BD884210B57C
:1034C00001EB020402D98442234607D8431EA142DD
:1034D00008D011F8012B03F8012FF8E70244014648
:1034E0008A4200D110BD13F8014D02F8014DF7E7F3
:1034F00037B5002944D051F8043C0190002BA1F1CC
:103500000404B8BFE41800F013F91E4A01981368C8
:1035100033B96360146003B0BDE8304000F00EB909
:10352000A34208D9256861198B4201BF19685B68FD
:1035300049192160EDE71A465B680BB1A342FAD93D
:1035400011685518A5420BD1246821445418A34290
:103550001160E0D11C685B68536021441160DAE7B8
:1035600002D90C230360D6E7256861198B4204BF9A
:1035700019685B68636004BF491921605460CAE739
:1035800003B030BD1404002070B50E4E0C463168F7
:10359000054611B900F0BCF830602146284600F01D
:1035A000B7F8431C0AD0C41C24F00304A04207D07F
:1035B000211A284600F0ACF8013001D14FF0FF3459
:1035C000204670BD180400202DE9F041CD1C25F0E7
:1035D000030508350C2D38BF0C25002D074601DBEF
:1035E000A94205D90C233B6000263046BDE8F08196
:1035F0002E4E00F09DF833681C4634BB29463846F1
:10360000FFF7C2FF431C04464DD134682646002E06
:1036100040D123683146384604EB030800F078F8BF
:1036200080453AD1216803356D1A25F00305083528
:103630000C2D38BF0C2529463846FFF7A5FF013071
:103640002BD023682B4423600EE02268521B1ED42B
:103650000B2A16D96119A342256018BF5960636807
:1036600008BF316062514B60384604F10B0600F030
:1036700065F826F00706231DF21AB6D09B1BA3504F
:10368000B3E76268A3420CBF32605A60ECE723469E
:103690006468B2E734467668B9E70C233B60384685
:1036A00000F04CF8A1E72560DEE700BF140400201D
:1036B0002DE9F041804614460E4621B9BDE8F0419F
:1036C0001146FFF781BF2AB9FFF712FF25462846AA
:1036D000BDE8F08100F038F88442074602D8B4EB28
:1036E000500F12D821464046FFF76EFF05460028CE
:1036F000EDD0BC422246314628BF3A46FFF7D0FE05
:1037000031464046FFF7F4FEE1E73546DFE70000CB
:1037100038B5064D0023044608462B60FDF722FA13
:10372000431C02D12B6803B1236038BD1C04002068
:10373000014800F011B800BF20040020014800F04B
:103740000CB800BF2004002051F8043C181F002BC7
:10375000BCBF0B58C018704770477047F8B500BF22
:10376000F8BC08BC9E467047F8B500BFF8BC08BC62
:043770009E467047BA
:1037740053797374656D20436C6F636B3A20256CC9
:1037840075206B487A0D0A535953434C4B3A202504
:103794006C75206B487A0D0A00000000427974654C
:1037A400733A2025640000000000000000000000BF
:1037B40001020304060708090000000001020304D3
:1037C400A0860100400D0300801A060000350C009D
:1037D40040420F0080841E0000093D0000127A0060
:1037E4000024F40000366E010048E801006CDC029D
:1037F4000402080000101010041010100210101021
:1038040008232D302B2000686C4C00656667454604
:103814004700303132333435363738394142434446
:1038240045460030313233343536373839616263D6
:043834006465660061
:0838380078CAFF7F01000000C7
:04384000B5010008C6
:0438440091010008E6
:1038480057686174657665720D0A00000000000013
:103858000000000000000000000000000000000060
:103868000000000000000000000000000000000050
:103878000000000000000000000000000000000040
:103888000000000000000000000000000000000030
:103898000000000000000000000000000000000020
:1038A8000000000000000000000000000000000010
:1038B8000000000000000000000000000000000000
:1038C80000000000000000000000000000000000F0
:1038D80000000000000000000000000000000000E0
:1038E80000000000000000000000000000000000D0
:1038F80000000000000000000000000000000000C0
:1039080000000000000000000000000000000000AF
:10391800000000000000000000000000000000009F
:10392800000000000000000000000000000000008F
:10393800000000000000000000000000000000007F
:1039480057686174657665720D0A00000000000012
:10395800000000000000000000000000000000005F
:10396800000000000000000000000000000000004F
:10397800000000000000000000000000000000003F
:10398800000000000000000000000000000000002F
:10399800000000000000000000000000000000001F
:1039A800000000000000000000000000000000000F
:1039B80000000000000000000000000000000000FF
:1039C80000000000000000000000000000000000EF
:1039D80000000000000000000000000000000000DF
:1039E80000000000000000000000000000000000CF
:1039F80000000000000000000000000000000000BF
:103A080000000000000000000000000000000000AE
:103A1800000000000000000000000000000000009E
:103A2800000000000000000000000000000000008E
:103A3800000000000000000000000000000000017D
:103A480000093D00010000001000000010020020E5
:103A5800000000000000000000000000000000005E
:103A6800000000000000000000000000000000004E
:103A7800000000000000000000000000000000003E
:103A8800000000000000000000000000000000002E
:103A9800000000000000000000000000000000001E
:103AA800000000000000000000000000000000000E
:0400000508002DC9F9
:00000001FF
