:020000040800F2
:10000000000001204D2D0008CD0A0008D10A00088B
:10001000D50A0008D90A0008DD0A0008000000001F
:10002000000000000000000000000000E10A0008DD
:10003000E50A000800000000E90A0008ED0A0008CF
:100040009D2D00089D2D00089D2D00089D2D000868
:100050009D2D00089D2D00089D2D00089D2D000858
:100060009D2D00089D2D00089D2D00089D2D000848
:100070009D2D00089D2D00089D2D00089D2D000838
:100080009D2D00089D2D00089D2D00089D2D000828
:100090009D2D00089D2D00089D2D00089D2D000818
:1000A0009D2D00089D2D00089D2D00089D2D000808
:1000B0009D2D000800000000000000009D2D00089C
:1000C0009D2D000800000000000000009D2D00088C
:1000D00000000000F10A00089D2D0008000000004B
:1000E0009D2D00089D2D000800000000000000006C
:1000F0000000000000000000000000000000000000
:100100000000000000000000000000009D2D00081D
:1001100000000000000000009D2D00089D2D00083B
:100120009D2D00089D2D00089D2D00089D2D000887
:100130009D2D0008000000000000000000000000ED
:100140009D2D00089D2D00089D2D00089D2D000867
:100150009D2D00089D2D00089D2D00089D2D000857
:100160009D2D00089D2D00089D2D00080000000019
:100170009D2D00089D2D00080000000000000000DB
:0C0180009D2D00089D2D00089D2D0008FD
:1001900010B5054C237833B9044B13B10448AFF3C1
:1001A00000800123237010BD7002002000000000B9
:1001B0004036000808B5034B1BB103490348AFF3B1
:1001C000008008BD000000007402002040360008D6
:1001D000034613F8012B002AFBD1181A0138704787
:1001E00001F0FF01102A2BDB10F0070F08D010F8E8
:1001F000013B013A8B422DD010F0070F42B3F6D1EC
:10020000F0B441EA012141EA014122F007047FF004
:1002100000070023F0E80256083C85EA010586EA5B
:10022000010685FA47F5A3FA87F586FA47F6A5FA97
:1002300087F68EB9EED1F0BC01F0FF0102F00702A3
:1002400032B110F8013B013A83EA010313B1F8D14E
:100250000020704701387047002D06BF354603382F
:10026000073815F0010F07D1013015F4807F02BF68
:10027000013015F4C03F0130F0BC0138704700BFB9
:1002800053B94AB9002908BF00281CBF4FF0FF31FD
:100290004FF0FF3000F07AB9ADF1080C6DE904CEF3
:1002A00000F006F8DDF804E0DDE9022304B0704751
:1002B0002DE9F0478C460D460446089E002B51D18F
:1002C0008A4217466DD9B2FA82FEBEF1000F0BD0FA
:1002D000CEF1200C01FA0EF520FA0CFC02FA0EF712
:1002E0004CEA050C00FA0EF44FEA174A250CBCFB49
:1002F000FAF81FFA87F90AFB18CC45EA0C4508FB07
:1003000009F3AB420AD9ED1908F1FF3280F02381DD
:10031000AB4240F22081A8F102083D44ED1AA4B29C
:10032000B5FBFAF00AFB105544EA054400FB09F955
:10033000A14509D9E41900F1FF3380F00A81A145F4
:1003400040F2078102383C44A4EB090440EA08402B
:100350000021002E61D024FA0EF400233460736073
:10036000BDE8F0878B4207D9002E54D0002186E8E3
:1003700021000846BDE8F087B3FA83F1002940F078
:100380008E80AB4202D3824200F2FA80841A65EB7F
:1003900003050120AC46002E3FD086E81010BDE8D2
:1003A000F08712B90127B7FBF2F7B7FA87FEBEF163
:1003B000000F34D1EB1B3A0C1FFA87FC0121B3FB71
:1003C000F2F8250C02FB183345EA03450CFB08F351
:1003D000AB4207D9ED1908F1FF3002D2AB4200F26F
:1003E000D1808046ED1AA3B2B5FBF2F002FB1055A6
:1003F00043EA05440CFB00FCA44507D9E41900F1CD
:10040000FF3302D2A44500F2B8801846A4EB0C04D6
:1004100040EA08409DE731463046BDE8F087CEF11E
:10042000200405FA0EF307FA0EF720FA04F83A0C46
:1004300025FA04F448EA0308B4FBF2F14FEA184540
:1004400002FB11441FFA87FC45EA044501FB0CF34B
:10045000AB4200FA0EF409D9ED1901F1FF3080F03A
:100460008A80AB4240F2878002393D44EB1A1FFA82
:1004700088F5B3FBF2F002FB103345EA034500FBBD
:100480000CF3AB4207D9ED1900F1FF386FD2AB4244
:100490006DD902383D44EB1A40EA01418FE7C1F1C2
:1004A000200722FA07F88B4005FA01F448EA030313
:1004B00020FA07FE4FEA134CFD404EEA040EB5FB4E
:1004C000FCF94FEA1E440CFB19551FFA83F844EA65
:1004D000054509FB08F4AC4202FA01F200FA01FA00
:1004E00008D9ED1809F1FF3043D2AC4241D9A9F146
:1004F00002091D442D1B1FFA8EFEB5FBFCF00CFB00
:1005000010554EEA054400FB08F8A04507D9E41849
:1005100000F1FF3529D2A04527D902381C4440EA12
:100520000940A4EB0804A0FB02894C45C6464D4691
:1005300015D312D056B1BAEB0E0364EB050404FADE
:1005400007F7CB401F43CC40376074600021BDE803
:10055000F0871846F8E69046E0E6C245EAD2B8EBE6
:10056000020E69EB03050138E4E72846D7E7404669
:1005700091E78146BEE7014678E702383C4445E70B
:10058000084608E7A8F102083D442BE7704700BF82
:10059000014B01221A707047FF0100202DE9F04144
:1005A0000021ACB00C4606A8442202F023FC2146F0
:1005B000542217A80294019403940494059402F021
:1005C00019FC01F089F8234AD2F8903023F018037F
:1005D000C2F89030012502264FF01408602228232B
:1005E000072706A80E9213930D94CDF8188008954E
:1005F0000C9511951295109615961696149701F074
:100600001FF90F22032301A80421019202930394EE
:100610000494059401F0B2FC44F203014FF08052BF
:100620004FF0807317A8179129921E931F9420945E
:1006300018951995CDF868801B971C961D9601F0AA
:10064000EBFD4FF4007001F057F801F03FFF2CB0C4
:10065000BDE8F081001002402DE980488DB00024F3
:1006600000F0B4FAFFF79AFF8F4B049403940594BB
:1006700006940794DA6C8D4D8D488E4F8E4EDFF8C0
:100680007082DFF860B242F00402DA64DA6C02F0E1
:1006900004020092009ADA6C42F00102DA64DA6C29
:1006A00002F001020192019ADA6C42F00202DA646D
:1006B000DB6C03F00203224602930821029B4FF0F9
:1006C000010A00F0F9FF03A90823794805944FF0C7
:1006D000040906940393CDF810A000F015FF774BA2
:1006E0006C602846AC60EC602C612C766C7685F8EA
:1006F0002040AC62EC6285F830406C6385F838408D
:100700002B60C5F814900394049405940694079400
:100710000894C5F81CA000F091FA694B03930622D7
:100720007F23284603A906930594CDF81C900894CE
:10073000049200F05FFB2146242203A802F05AFB3A
:10074000604B3B60384600F011FE03A92246384654
:100750000394049405940694079400F01DFE5A4BEC
:10076000B4604FF4E1370C25304686E88800F46029
:100770003461B461F46134627462756102F0B0F99D
:10078000524B534A5F6018469C60DC601C615D619F
:100790009C61DC611C625C621A6002F0A1F9224675
:1007A0002146262000F084FD262000F0B7FDC82059
:1007B00000F032FA474BDFF83C911C68464F474D3A
:1007C00000F0E4FFA8FB0434A409A8FB00239B0964
:1007D000224643494348444C02F014FBC1B20A4646
:1007E00089F800103046C8233E4901F077FE2B7887
:1007F0003C4A4FF00008012B89F8008087F8008000
:1008000082F8008018BF84F8008030D1C2460122EF
:1008100004EB0801304601F01BFF14F908300A2BE5
:1008200008BF85F800A02B7808F101085FFA88F26C
:10083000012B4FFA82F8EAD04FF0000A04F808A022
:1008400023783A7093B12848FFF7C2FC4FF0FF08B5
:1008500082B2C82324491D4801F040FE4246514659
:10086000214802F0C7FA3A7889F8008022B90821B5
:100870000F4800F027FFBAE71C49584602F0C2FAB9
:100880005846FFF7A5FC4FF0FF0882B2C82359462F
:10089000304601F023FE42460021584602F0AAFAF3
:1008A00089F80080E3E700BF00100240B00200209A
:1008B000000400489C0200201403002000000450A3
:1008C000000180210074004000380140980300209E
:1008D000004400400002002098020020FF01002098
:1008E000583600080000002000010020843600086F
:1008F000D34D6210940300200A4B1A6E42F001029D
:100900001A661A6E82B002F001020092009A9A6D85
:1009100042F080529A659B6D03F080530193019BD6
:1009200002B070470010024010B50168164A88B046
:10093000002391420493039305930693079301D0F8
:1009400008B010BD03F1804303F5043303A9DA6C4A
:1009500042F40052DA64DA6C02F400520192019A15
:10096000DA6C42F00102DA64DB6C03F001030293FB
:1009700008220B234FF09040029C0392049300F056
:10098000C3FD08B010BD00BF0000045010B50168E1
:10099000164A88B00023914204930393059306936B
:1009A000079301D008B010BD03F1804303F5043371
:1009B00003A99A6D42F000529A659A6D02F00052B6
:1009C0000192019ADA6C42F00102DA64DB6C03F006
:1009D00001030293102203234FF09040029C0392E4
:1009E000049300F091FD08B010BD00BF00740040FA
:1009F000F0B50368324A8BB0002493420694059404
:100A000007940894099431D02E4A934201D00BB038
:100A1000F0BD2D4B9A6D42F400329A659A6D02F446
:100A200000320392039ADA6C42F00102DA64DB6C62
:100A300003F001030493032504220226072305A9DA
:100A40004FF090400993049F05920696089500F098
:100A50005BFD4FF4004305A94FF0904006960895C2
:100A600009950794059300F04FFDD0E7164B1A6ED9
:100A700042F480421A661A6E02F480420192019A90
:100A8000DA6C42F00102DA64DB6C03F001030293DA
:100A900005A9072303224FF4C06602254FF09040BA
:100AA00008920993029F0596069500F02DFD2246B7
:100AB0002146252000F0FCFB252000F02FFCA6E7B6
:100AC000003801400044004000100240704700BF61
:100AD000FEE700BFFEE700BFFEE700BFFEE700BF86
:100AE000704700BF704700BF704700BF00F082B87A
:100AF000014801F07DBE00BF140300200A4A08B57A
:100B0000136873B118446946884202D810601846C9
:100B100008BD02F045F90C2303604FF0FF3318467F
:100B200008BD024B1360EDE78C020020200400207A
:100B30001149124BD1F8882042F4700210B4C1F868
:100B400088201A68002042F001021A6098601A6832
:100B500022F0A85222F410224FF480541A60DC6074
:100B60001A684FF0006422F480221A6098618C6049
:100B70005DF8044B704700BF00ED00E0001002403C
:100B800038B50F4B1B780BB9012038BD0D494FF418
:100B90007A720546B2FBF3F30868B0FBF3F000F09D
:100BA000CBFB04460028EFD10F2DEDD80246294695
:100BB0004FF0FF3000F07CFB034B20461D6038BD3A
:100BC00004020020000200200802002000B50320DB
:100BD00083B000F05BFB0020FFF7D2FF18B10120CB
:100BE00003B05DF804FB0190FFF786FE019803B0A7
:100BF0005DF804FB034A044B11681B780B44136037
:100C0000704700BF1804002004020020014B186840
:100C1000704700BF1804002038B50446FFF7F6FF00
:100C2000631C054602D0044B1B781C44FFF7EEFF03
:100C3000401B8442FAD838BD04020020F0B583B0CE
:100C400000230193002800F0B680456D0446002D76
:100C500000F09E8022689368980005D5936823F081
:100C6000204323F03F0393609368D90017D45C4B73
:100C700091681B685B489B0921F01041A0FB0303AE
:100C800021F03F019B0941F0805191600193019B4C
:100C90002BB1019B013B0193019B002BF9D1936880
:100CA000DB0014D4636D43F010036365A36D43F060
:100CB0000103A36593685F074FF001000CD5636DD6
:100CC000636D012043F01003636503B0F0BD9368CA
:100CD0005F074FF00000F2D4636DD906F0D4636D66
:100CE00023F4817343F0020363659368DE070AD43B
:100CF0003D4B9B68DB0706D43C4965688B6823F451
:100D00007C132B438B60636BE768A66894F8201014
:100D1000657E3B43334343EA4533012943EA0143BC
:100D200044D0A16A21B1E56A01F4707129430B43F3
:100D3000D5682F4929400B43D360936891680D070C
:100D400003F0040315D4A3B9D16894F83030267E9B
:100D500094F8385021F480415B0021F0020143EA0D
:100D600086330B43012DD36028D0136923F0010390
:100D700013612369012B11D0136B23F00F0313634D
:100D8000636D23F0030343F00103636503B0F0BD1B
:100D9000FFF7CAFDA56584F850505BE7116BE36966
:100DA00021F00F01013B0B431363E9E7616A01394D
:100DB00043EA4143B5E7012003B0F0BDE36B276C84
:100DC000666C1569A16C3B4343F00103334325F482
:100DD000FF650B4325F004052B431361C9E700BFF2
:100DE00000020020632D3E05000004500003045063
:100DF00007C0F0FFF0B5034683B093F85020002001
:100E0000012A019079D01D68AC68012014F0040417
:100E100083F8500008D05A6D42F020025A65002233
:100E200083F8502003B0F0BD4868052868D900F069
:100E30001F0E1F26840906FA0EF604F00C04F74371
:100E400005F130000A680659C2F384623E4002FA96
:100E50000EF232430251AA68A868040702F00402A5
:100E600000F1A580002A40F0A28008688C68C70DB8
:100E700005F1140607F00407C0F30450BA594FF007
:100E8000070E0EFA00FE22EA0E0204FA00F00243F8
:100E9000BA510E69E868042E3AD00C684A69B74F17
:100EA00005F1600EC0F3C1004000824004F0F84438
:100EB00070465EF826E044F0004422430EEA07073D
:100EC0003A4340F826200A68A868C00773D514463C
:100ED000AB4A14420FD0AB4AAB4990688C4200F049
:100EE000E07600F0D180A9498C4200F0F180A84959
:100EF0008C4200F0B980002091E7022003B0F0BDE1
:100F00000238032800F2F580DFE800F0A8A29C93E5
:100F10000A68286E286EC2F31207C0F38460002F9F
:100F200040F02481C2F38464844206D12A6E22F008
:100F300000422A660A68C2F31207686E6E6E05F1F7
:100F40006000C6F38466002F40F05F81C2F38464C2
:100F5000A64240F08C816A6E22F000426A660A68FE
:100F600084688668C2F31204C6F3846600F1080739
:100F7000002C40F05881C2F38464A64240F07E8188
:100F80003A6822F000423A600A68C468C668C2F350
:100F90001204C6F384660C30002C40F05181C2F379
:100FA0008464B44290D1026822F000420260A868D2
:100FB0000A68C0078BD4CE687648D5F8B040DFF811
:100FC000E4E106F01807F840C2F3120724EA070428
:100FD000104020437645C5F8B00014467FF478AF42
:100FE000002F40F08C80920E501C00F01F06092E3E
:100FF00000F2FD808006012400F0F840B44006EBCA
:101000004602204312050243D70D05F1140407F0F0
:101010000407C2F3045238598E684FF0070E0EFAD7
:1010200002FE20EA0E0006FA02F202433A510C6870
:101030004EE74FF480724A604FF0000E6FF01F07CA
:101040000424FDE618224A6096466FF0F857F7E64A
:1010500012224A6096466FF4F807F1E60C224A60C5
:1010600096466FF4F837EBE610F480007FF443AF58
:1010700049498D427FF43FAF916821F0E0713143DF
:1010800041F480019160CAE601023FF534AF424964
:101090008D427FF430AF9168404C414821F0E071BF
:1010A000314341F40001916022689209A0FB0212D1
:1010B000920902EB420292000192019A002A3FF447
:1010C0001AAF019A013A0192019A002AF9D112E766
:1010D00010F080707FF40FAFA1F1F7418D427FF4E3
:1010E0000AAF916821F0E071314341F08071916065
:1010F00095E606224A6096466FF4F867A0E692FAF3
:10110000A2F0002850D0B0FA80F0013000F01F00AB
:10111000092849D992FAA2F4002C00F09C80B4FA74
:1011200084F40134A40604F0F84492FAA2F00028F2
:1011300000F09680B0FA80F0013000F01F00012628
:1011400006FA00F0044392FAA2F2002A00F0868028
:10115000B2FA82F0013000F01F0000EB4000A0F175
:101160001E02120542F0007222434DE792FAA2F4E9
:10117000002C3FF4E2AEB4FA84F4D5E600F0FF03AD
:101180000000088000030450000052C7000084CB18
:1011900001000080FFFF0700000004500002002053
:1011A000632D3E0500007F4092FAA2F000285BD03C
:1011B000B0FA80F00130800600F0F84092FAA2F414
:1011C000002C4FD0B4FA84F4013404F01F0401263B
:1011D00006FA04F4204392FAA2F2CAB3B2FA82F2F7
:1011E000013202F01F0202EB420212050BE706EB8E
:1011F000460284061E3A012004F0F84400FA06F67E
:101200001205344342F00072AEE792FAA2F424B120
:10121000B4FA84F4A6423FF49EAE8468866800F176
:101220000807C6F3846692FAA2F424B1B4FA84F4EF
:10123000A6423FF4A5AEC468C6680C30C6F3846607
:1012400092FAA2F4002C3FF43FAEB4FA84F4A8E67C
:101250004FF44012D7E64FF0806466E70A4A83E70E
:1012600002206FE70224B5E74FF08060A6E7AE6E7C
:10127000AE6E05F16807C6F384667EE6C668C6688A
:101280000C30C6F384668CE6000050FE074AD36833
:101290004FF6FF010B40000243F0BF6300F4E06033
:1012A00043F400330343D360704700BF00ED00E018
:1012B000184B70B4DC68C4F30224C4F10706042E92
:1012C00004F1040328BF0426062B17D9033C01258B
:1012D000A540013D2A400123B340013B1940A140F4
:1012E000002841EA02010CDB00F1604000F561409A
:1012F0000901C9B280F8001370BC7047002214467F
:10130000E9E7054B00F00F0009010344C9B2197663
:1013100070BC704700ED00E0FCEC00E0002807DB4B
:10132000044A00F01F01012340098B4042F820309D
:10133000704700BF00E100E00138B0F1807F0ED2BD
:10134000084B10B4084C5860F02084F823000022A9
:10135000072110469A6019605DF8044B7047012020
:10136000704700BF10E000E000ED00E088B10379B5
:1013700010B503F0FF0204463BB100230221012215
:10138000217118462361227110BD4271FFF7FEFAE8
:10139000F3E70120704700BFF8B54379012B3CD03B
:1013A0000F68164602230122042F0D46044642719F
:1013B000037134D0006806F010022B69012B6AD04B
:1013C000AB68D5F80CE0C66B696843EA0E030725E5
:1013D0003B43954026EA050593402B43C3630368CE
:1013E0004FF48045954023EA05030360056840F605
:1013F000FC76964001FA02F325EA06010B430360EE
:101400000368C02101FA02F223EA0202012100234B
:101410000260184621716371F8BD0220F8BDFFF724
:10142000F5FB07462EB114E0FFF7F0FBC01B0128C7
:101430003BD823685B6B1B04F6D40120FFF7ECFB61
:101440002068AB6903640EE0FFF7E0FBC01B0128D6
:101450002BD823685B6B002BF6DB0120FFF7DCFB4E
:101460002068AB69436406F01002816CEB692E6A58
:1014700040F2FF37974021EA070193401943816406
:10148000C36C2F68FF21914023EA010306FA02F1A1
:101490000B43C36491E7816B6B691F26964021EA79
:1014A000060193400B4383638AE72369032243F0D9
:1014B0000803236110462271F8BD00BF90F8252073
:1014C000022AF8B503D00422C2630120F8BD0168E6
:1014D000426C0C68076C856B24F00E040C600C6881
:1014E000012624F0010402F01C020C6006FA02F24C
:1014F00000247A6080F8256080F8244015B1A84760
:101500002046F8BD2846F8BD8C460968002900F041
:10151000CA802DE9F04F002683B0DFF89881344669
:101520006CE0C568DB4305EA030EDCF80850B54003
:1015300045EA0E05C560D0F800E002F003050EEAAA
:10154000030E2B46B34043EA0E030360D3004FD58E
:10155000554B55491B6E43F001030B660B6E24F08F
:10156000030101F1804103F0010301F58031019392
:1015700004F00303019D8D689B004FF00F0E0EFADF
:1015800003FEB0F1904F25EA0E0E00F08680474D25
:10159000A84200F08480464DA8420CBF02250725D2
:1015A00005FA03F343EA0E038B60D8F80030F943E1
:1015B000D50354BF0B403B43C8F80030D8F8043083
:1015C000950354BF0B403B43C8F80430D8F80830AB
:1015D000D50254BF0B403B43C8F80830D8F80C3054
:1015E000920254BF0B403B43C8F80C30DCF80010AB
:1015F000013431FA04F306F102064BD0012303FA59
:1016000004FE1EEA0107F3D0DCF8042022F0100AE1
:101610000AF1FF33012B4FF0030303FA06F380D8DE
:101620008568DCF80890DB4305EA030BDCF80C5016
:10163000B54045EA0B058560D0F804B0C2F300154B
:101640002BEA0E0EA54045EA0E054560C56809FA6D
:1016500006F91D4049EA0505BAF1020FC5607FF49D
:101660006AAF4FEAD40900EB890904F0070ED9F8F4
:1016700020504FEA8E0E4FF00F0A0AFA0EFB25EAB1
:101680000B0ADCF8105005FA0EF545EA0A05C9F810
:10169000205050E703B0BDE8F08F002382E701251A
:1016A00005FA03F37EE7704700100240000400488B
:1016B00000080048000401400AB981627047816156
:1016C000704700BF436903EA010221EA030141EACE
:1016D00002418161704700BF024A136843F480737E
:1016E0001360704700700040024B186800F4C0603F
:1016F000704700BF00700040B0F5007F0ED0204A58
:10170000136803F4C063B3F5806F36D0136823F415
:10171000C06343F4806313600020704718490B686E
:1017200003F4C063B3F5007F27D00A68154B164851
:1017300022F4C06242F4007210B40A601C684A6964
:10174000322303FB04F3A0FB03039B0C500503F1BE
:10175000010306D500E023B14A69520503F1FF33C6
:10176000F9D4074B5B695B0503D503205DF8044B97
:10177000704700205DF8044B70470020704700BFA1
:10178000007000400002002083DE1B43284A93685B
:10179000D26813F00C0308D00C2B38D0042B34D0B3
:1017A000082B244818BF00207047214A11680907F8
:1017B00054BFD2F8942012681F4954BFC2F30322C9
:1017C000C2F3031251F8220003B30C2B2DD1184B96
:1017D000DB6803F00303022B25D0164A032B08BF56
:1017E0001046134BD968DA68DB68C3F341630133F1
:1017F000C1F30211C2F3062200FB02F201315800CC
:10180000B2FBF1F3B3FBF0F070470C48704702F005
:101810000302012AC9D0064BDB6803F00303022B45
:101820004FF00000D9D10548DBE70020704700BF2A
:101830000010024000127A00A83600080024F400CC
:10184000002800F013832DE9F043984A0368956857
:10185000D668DA0685B0044605F00C0506F00306E6
:101860002ED5002D00F029810C2D00F02381A369D5
:101870008E4F002B00F07C813B6843F001033B60FE
:10188000FFF7C4F9804606E0FFF7C0F9A0EB0800B7
:10189000022800F27D813B689B07F5D53B6843F049
:1018A00008033B603B68226A23F0F00313433B606C
:1018B0007B68E26923F47F4343EA02237B60236869
:1018C000D90729D5082D00F07D810C2D00F07781F6
:1018D0006368B3F5803F00F07F81B3F5A02F00F07F
:1018E0003282724F3A6822F480323A603A6822F4C7
:1018F00080223A60002B40F07481FFF787F9804620
:1019000006E0FFF783F9A0EB0800642800F24081AD
:101910003B689803F5D42368990700F1A280190762
:1019200019D56369614E002B00F00E81D6F8943012
:1019300043F00103C6F89430FFF768F9074605E065
:10194000FFF764F9C01B022800F22281D6F8943018
:101950009A07F5D523685F073FD5544B9A6DD6009B
:1019600000F160819A6D42F080529A659B6D03F0A0
:1019700080530193019B01274D4E3368D80540F1F8
:10198000D081A368012B00F01882052B00F04C8158
:10199000464ED6F8902022F00102C6F89020D6F8E4
:1019A000902022F00402C6F89020002B40F04981DC
:1019B000FFF72CF941F28838814606E0FFF726F957
:1019C000A0EB0900404500F2E380D6F890309B0779
:1019D000F4D4002F40F05F822368980618D5636A1C
:1019E000324E002B00F03F81D6F8983043F00103CF
:1019F000C6F89830FFF70AF9074605E0FFF706F941
:101A0000C01B022800F2C480D6F898309907F5D59B
:101A1000A36A13B3022B00F0D8810C2D00F0908044
:101A2000224B1A6822F080721A601A68120140F183
:101A300070811E4CE36823F0887323F48033E360E5
:101A4000FFF7E4F8054605E0FFF7E0F8401B022841
:101A500000F29E8023689B01F6D4002005B0BDE80B
:101A6000F083042D00F09B800C2D00F09580E3683E
:101A70000E4E002B00F0C480336843F48073336053
:101A8000FFF7C4F8074604E0FFF7C0F8C01B0228C0
:101A90007ED833685B05F7D57368226923F0FE436F
:101AA00043EA02637360236839E700BF0010024015
:101AB00000700040012E7FF4DAAEA94B1B689F072F
:101AC0003BD4A74BD4F820801A68A54F100756BF07
:101AD000D3F894301B681B0903F0F0034345C0F0B2
:101AE000D6803B6843F008033B603B6823F0F0037B
:101AF00043EA08033B607B68E26923F47F4343EADF
:101B000002237B60002D00F03581FFF73FFE944BF0
:101B1000944F9B689449954AC3F30313FB5C03F00D
:101B20001F0320FA03F308681360FFF729F880BB4E
:101B30002368D9077FF5F0AEC4E6A369002BC0D1B6
:101B4000012005B0BDE8F083D6F8943023F00103FE
:101B5000C6F89430FFF75AF8074604E0FFF756F846
:101B6000C01B022814D8D6F894309B07F6D4F1E6AF
:101B70003B6823F001033B60FFF748F880463B6871
:101B80009807D5D5FFF742F8A0EB08000228F6D950
:101B9000032005B0BDE8F083022E7FF468AF704AE1
:101BA0001268520502D5E268002AC9D06C49206942
:101BB0004A6822F0FE4242EA00624A60AFE6032E23
:101BC0007FF486AE664A126892037FF5A5AE62681E
:101BD000002A7FF4A1AEB3E7614A136843F480336F
:101BE0001360FFF713F85E4F804605E0FFF70EF82D
:101BF000A0EB08006428CBD83B689B03F6D58AE6A7
:101C0000336823F480733360FFF700F8074604E07D
:101C1000FEF7FCFFC01B0228BAD833685805F7D47A
:101C200023687CE60027A7E64D4BD3F8902042F0CE
:101C30000402C3F89020D3F8902042F00102C3F8C8
:101C40009020FEF7E3FF464E814641F2883805E0DA
:101C5000FEF7DCFFA0EB0900404599D8D6F890309C
:101C60009A07F5D5B5E6D6F8983023F00103C6F803
:101C70009830FEF7CBFF074604E0FEF7C7FFC01B16
:101C8000022885D8D6F898309A07F6D4C0E6BB6DFE
:101C9000D90043D4BB6D43F08053BB65BB6D03F0EB
:101CA00080530293029BFFF71FFDBB6D23F080530F
:101CB000BB65B0F5007F00F0F480B8F1800F00F252
:101CC000D78000F04C81A8F17008B8FA88F84FEA84
:101CD0005818274A136823F0070343EA08031360E0
:101CE000136803F0070398457FF42AAF1C4B1A686A
:101CF00042F008021A601A68216A22F0F0020A43D0
:101D00001A605A68E16922F47F4242EA01225A606D
:101D1000FBE6DA6822F00302DA608AE6FFF7E4FC09
:101D2000C7E7336843F480733360FEF76FFF804684
:101D30003368D9053FF525AEFEF768FFA0EB080034
:101D40000228F5D924E703F18043A3F53C331A6850
:101D500042F480221A601A6842F480321A6040E726
:101D60000010024090360008080200200002002007
:101D700000200240BB6DDA007DD5FFF7B5FCB0F561
:101D8000007F00F09C80B8F1800F00F2958000F099
:101D9000EC80A8F17008B8FA88F84FEA5818744A2D
:101DA000136823F0070343EA08031360136803F082
:101DB000070398457FF4C4AEA7E66E4AD2F8903088
:101DC00043F00103C2F890303BE76A4AE16AD36806
:101DD00003F0030088427DD00C2D3FF4B1AE654D79
:101DE0002B685B013FF5ACAE2B6823F080732B6052
:101DF000FEF70CFF064605E0FEF708FF801B0228F1
:101E00003FF6C6AE2B689F01F6D4E9685A4BE26AEA
:101E1000676BA66B206B0B401343E16B226C554C38
:101E200043EA0723013843EAC663490843EA00133B
:101E30000139520843EA4153013A43EA4263EB60F5
:101E40002B6843F080732B60EB6843F08073EB608A
:101E5000FEF7DCFE054605E0FEF7D8FE401B022833
:101E60003FF696AE23689E01F6D5F6E50120704751
:101E70004FF003082DE7BB6D43F08053BB65BB6D8E
:101E800003F080530393039BFFF72EFCBB6D23F0FD
:101E90008053BB6573E7374A936D23F08053936596
:101EA0009AE5B8F1800F57D9B8F1A10F34BF4FF0C0
:101EB00001084FF002080CE74FF003086FE7B8F194
:101EC000800F4FD9B8F1A10F34BF4FF001084FF088
:101ED000020864E7206B03F070010138B1EB001FCA
:101EE0007FF47AAF606B03F4FE41B1EB002F7FF417
:101EF00073AFA06B03F07841B1EBC06F7FF46CAFB0
:101F0000E16B4908013903F4C000B0EB415F7FF495
:101F100063AF216C490803F0C0630139B3EB416F33
:101F20007FF45AAF136898013FF597AD136843F0FB
:101F300080731360D36843F08073D3601446FEF758
:101F400065FE0546236899013FF587ADFEF75EFE05
:101F5000401B0228F6D91BE64FF00008B9E64FF007
:101F60000208B6E64FF0000819E74FF0020816E73E
:101F700000200240001002408C809D0178B1474A49
:101F8000136803F007038B420BD2136823F0070397
:101F90000B431360136803F00703994201D001203B
:101FA000704703682DE9F0410D46D90704461BD45C
:101FB000990706D53A49A0688A6822F0F0020243E0
:101FC0008A6036490A6802F00702954232D20A68EE
:101FD00022F007022A430A600A6802F007029542CB
:101FE00028D00120BDE8F08143682D4A032B1268F8
:101FF0004DD0022B45D0002B4CD19607F1D5284E61
:10200000B26822F003021343B360FEF7FFFD41F212
:102010008837804605E0FEF7F9FDA0EB0800B842DE
:1020200032D8B368626803F00C03B3EB820FF2D1CD
:102030002368BDE75A0706D51949E0688A6822F483
:10204000E06202438A601B0707D5154A216993683D
:1020500023F4605343EAC1039360FFF797FB104BEF
:10206000104C9B681049114AC3F30313E35C03F05F
:102070001F0320FA03F3BDE8F04108681360FEF780
:102080007FBD9703BBD4ACE70320BDE8F08192018C
:10209000B5D4A6E75005A4D5B1E700BF00200240A3
:1020A00000100240903600080802002000020020C4
:1020B000054B064A9B680649C3F302230868D35CB4
:1020C00003F01F03D840704700100240A0360008FC
:1020D00000020020054B064A9B680649C3F3C22351
:1020E0000868D35C03F01F03D8407047001002401B
:1020F000A036000800020020464AF8B5D3689B07C6
:1021000007D0D368046803F00303A3420CD0012076
:10211000F8BD0368022B11D0032B55D0012BF6D14B
:1021200012689707F3D50CE0002BF0D0D368426813
:10213000C3F3021301339342E9D10CE01268560550
:10214000E5D5344D4468EA6822F073021343013C3C
:1021500043EA0413EB602F4C236823F08063236071
:102160000F460646FEF752FD054604E0FEF74EFD1B
:10217000401B022826D823681A01F7D45FBB2269C6
:10218000F368B16822F07842DB0622F4FE4243EAAB
:102190000123134323611F4C236843F080632360B2
:1021A000FEF734FD054604E0FEF730FD401B022833
:1021B00008D823681B01F7D5B2692369134323614B
:1021C0000020F8BD0320F8BD1468A503B9D4126837
:1021D00054039CD5B5E7012F23690DD07269B1680E
:1021E00023F0C06323F4FE43520843EA0123013A7B
:1021F00043EA42632361CEE73269B16823F4C00346
:1022000023F4FE43520843EA0123013A43EA4253CE
:102210002361C0E7001002402DE9F043036813F486
:10222000006783B004460CD0C16BB1F5000F00F01D
:102230001B81B1F5400F00F00381002900F01A81E5
:1022400001279D0357D59F4B9A6DD00040F1DF8049
:102250004FF000089C4D2B6843F480732B60FEF711
:10226000D5FC064605E0FEF7D1FC801B022800F2F3
:10227000DA802B68D905F6D5C7BB924A216DD2F812
:10228000903013F4407329D08B4200F01581D2F8BE
:102290009030D2F8900040F48030C2F89000D2F82C
:1022A000900023F4407320F48030C2F89000C2F80C
:1022B0009030DA0712D5FEF7A9FC824D814641F233
:1022C000883606E0FEF7A2FCA0EB0900B04200F25F
:1022D000AA80D5F890309B07F4D5216D794AD2F8C1
:1022E000903023F440730B43C2F89030B8F1000FE4
:1022F00040F09E802368DE0708D57249206AD1F835
:10230000882022F003020243C1F888209D0708D5E7
:102310006C49606AD1F8882022F00C020243C1F8AF
:102320008820980608D56749A06AD1F8882022F449
:1023300040620243C1F88820990508D56149606B65
:10234000D1F8882022F440220243C1F888205A059F
:1023500008D55C49A06BD1F8882022F440120243D2
:10236000C1F888205E0608D55649E06AD1F8882071
:1023700022F440520243C1F88820DD0508D55149B6
:10238000206BD1F8882022F440320243C1F8882023
:1023900098040ED54B48216CD0F8882022F040627A
:1023A0000A43B1F1006FC0F8882058D0B1F1806FB6
:1023B00070D059030ED54348616CD0F8882022F0C4
:1023C00040620A43B1F1006FC0F8882042D0B1F1F9
:1023D000806F67D05A040BD53A48A16CD0F888209A
:1023E00022F040520A43B1F1805FC0F8882049D002
:1023F0001B0408D5334AE16CD2F8883023F08043BF
:102400000B43C2F88830384603B0BDE8F0839A6DBC
:1024100042F080529A659B6D03F080530193019BBB
:102420004FF0010816E70327B8F1000F3FF462AF41
:10243000244A936D23F0805393655BE7E16B236837
:102440002048D0F8882022F440021143C0F88810B8
:102450000027F6E6C26842F48012C260BAE7C2689A
:1024600042F48012C260A4E71648C26842F4803287
:10247000C260E5E70430FFF73FFE07460028DDD0E5
:102480002368DEE60221201DFFF736FE90B10746E5
:102490002368ADE70121201DFFF72EFE70B107462E
:1024A000236886E70121201DFFF726FE40B107467D
:1024B00023688FE723689BE70B46FAE6236878E7F3
:1024C000236887E70010024000700040024A13684A
:1024D00043F0040313607047001002402DE9F043FD
:1024E0000E46416F202983B003D0022003B0BDE81F
:1024F000F083002E44D0002A42D01D4690F8703060
:10250000012B0446F1D0212301214FF00008C0F82F
:102510007C8080F8701043670192FEF777FBA36818
:10252000019AA4F85020B3F5805F0746A4F8522022
:1025300000F08780B4F85230206800229BB284F803
:102540007020A3B1691C1DD1C2691206FCD5002EF2
:102550003DD016F8013B0385B4F85230013B9BB2E5
:10256000A4F85230B4F852309BB2002BEAD16A1C66
:1025700032D1C3695B06FCD5202363670020B5E731
:102580000120B3E7C36913F08009E0D1FEF73EFBF9
:10259000C01B854244D3002D42D0206803685A07EF
:1025A000D0D5C3691B05CDD54FF400630362036822
:1025B00023F4D07303608268202322F0010282603A
:1025C00063670320A36784F87090E3678EE738F8A9
:1025D000023BC3F30803BEE7C66916F04006CBD141
:1025E000FEF714FBC01B85421AD3CDB120680368E7
:1025F0005B07BCD5C3691905B9D54FF40063036205
:10260000036823F4D07303608268202322F0010260
:10261000826063670320A36784F87060E36765E7FF
:1026200023681A6822F4D0721A609A68202122F076
:10263000010200259A600320616784F87050A16749
:1026400054E72369002B7FF475AFB0461E4671E74F
:10265000836F202B01D002207047002933D0002A3D
:1026600031D090F87030012BF5D0836810B4B3F5F9
:10267000805F41654FF001044FF00001A0F8582041
:10268000A0F85A2080F87040016624D0EBB90369A5
:10269000002B30D1FF23A0F85C3022230268224CAB
:1026A0000021C1678367936843F001039360116859
:1026B0000466002341F4907180F870305DF8044B9B
:1026C00011601846704701207047B3F1805F23D036
:1026D000A0F85C10E1E703698BB922210268C367A7
:1026E00081679368114C43F0010340F2FF11A0F899
:1026F0005C109360DBE77F23A0F85C30CDE72223FA
:102700000268C16783679368074C43F00103FF21A8
:10271000A0F85C109360CAE70369002BEBD03F235D
:10272000A0F85C30B9E700BF352700089127000802
:10273000704700BF826F222A38B5026805D0138B1C
:102740009BB243F00803138338BD928C90F85C4031
:10275000416D22400A70B0F85A20416D013A92B2A0
:10276000A0F85A20B0F85A20013192B24165002AEF
:10277000EAD101680C6824F490740C608C68202500
:1027800024F001048C6002668567FDF701FF38BD07
:10279000826F222A38B506D00268138B9BB243F0B1
:1027A0000803138338BD0468B0F85C50A28C416DF7
:1027B0002A4021F8022BB0F85A204165013A92B222
:1027C000A0F85A20B0F85A2092B2002AEAD1216823
:1027D00021F490712160A168202521F00101A16000
:1027E00002668567FDF7D4FE38BD00BF704700BFA5
:1027F0000368DA69196870B540F60F06324204467C
:102800009D6858D015F001005FD0D50707D5CE05DB
:1028100005D501251D62E56F45F00105E5679507C2
:102820007BD538B102251D62E56F560745F00405DA
:10283000E56776D4160703D58D0679D4002877D1BD
:10284000100508D54E0106D54FF400601862E06F00
:1028500040F02000E067E06F00282BD0950606D5F9
:10286000880604D5226E12B1204690472368E56F92
:102870009968490602D415F0280569D01A6822F42F
:1028800090721A609A68202122F001029A60A16772
:102890009A6800215206216651D59A68E06E22F0AE
:1028A00040029A6000284AD02C4B8363FEF706FE54
:1028B000002848D170BD96060AD58E0608D5036E4D
:1028C000002BF7D0BDE870401847254E31429CD10F
:1028D000D60208D4160610D50D060ED5636E002B51
:1028E000E8D02046EEE76802F4D54FF48012204687
:1028F0001A62BDE8704000F027BA5006DAD54A06E1
:10290000D8D51A68202522F0400200211A602046FE
:1029100065676166FFF70CFFCCE755078AD500288D
:1029200088D004251D62E56F45F00205E56781E763
:1029300008201862E06F40F00800E06780E720465A
:10294000FFF754FF70BDE06EBDE87040836B184721
:102950002046FFF74BFFE56770BD00BF6529000803
:102960002001000408B5836A0022A3F85A20184603
:10297000A3F85220FFF73AFF08BD00BF436ADA0709
:1029800010B406D50168846A4A6822F400322243F2
:102990004A609C0706D50168C46A4A6822F48032FE
:1029A00022434A60590706D50168046B4A6822F43D
:1029B000802222434A601A0706D50168446B4A68A0
:1029C00022F4004222434A60DC0606D50168846B8B
:1029D0008A6822F4805222438A60990606D50168EB
:1029E000C46B8A6822F4005222438A605A0609D5D1
:1029F0000168046C4A6822F480122243B4F5801FF7
:102A00004A600BD01B0606D50268816C536823F41C
:102A100000230B4353605DF8044B70474A68446CD5
:102A200022F4C00222434A60ECE700BF70B50023E5
:102A30000546C367FEF7EAF82B681A6806461007D2
:102A400009D41A6850072AD4202300206B6785F820
:102A50007000AB6770BDDC6914F40014F1D1FEF7AF
:102A6000D5F82B68801BB0F1007F1A6829D2510776
:102A7000F1D5DA691205EED54FF400621A621A68D0
:102A800022F4D0721A609968202221F00101996025
:102A900003206A6785F87040AA67EA6770BDDC6941
:102AA00014F48004D0D1FEF7B1F82B68801BB0F18C
:102AB000007F1A6805D25107F1D5DA691205EED503
:102AC000DAE722F4D0721A609A68202122F001021B
:102AD0009A600320696785F87040A96770BD00BFE0
:102AE000002800F0DF80F8B5436F0446002B2ED09D
:102AF000236827696669E1698948242262671D683D
:102B0000A26825F001051D601D683A433243284044
:102B10000A4302431A605A68E5688248A66922F4AB
:102B200040522A4383425A6038D09868226A7E4DC8
:102B300020F4306032430243AB429A600CD07B4AAF
:102B4000934273D00023236663660120F8BD80F8AA
:102B50007030FDF74DFFCBE7754B764AD3F88830E0
:102B600003F00303D35CB1F5004F40F0A280082BC3
:102B7000E8D801A252F823F0792C00086D2C000847
:102B8000852C0008452B00087F2C0008452B0008E9
:102B9000452B0008452B00083D2C00089A68644925
:102BA00022F4306232439A60D1F8883003F44063F3
:102BB000B3F5806F78D06DD9B3F5006F64D0B3F5FD
:102BC000406FBFD14FF40040626802EB4203834282
:102BD000B8D8B0EB023FB5D856084FF48073002741
:102BE000E3FB0067304600233946FDF749FB524BB3
:102BF000A0F540729A42A5D82368D860626A002383
:102C000023666366002A41D123685A6822F4904201
:102C10005A609A6822F02A029A601A6842F0010209
:102C200020461A60BDE8F840FFF700BF404B434A1A
:102C3000D3F8883003F00C03D35C94E74FF480336F
:102C4000626803EB5203B3FBF2F39AB2A2F11000F5
:102C50004FF6EF7188423FF675AF23F00F039BB23A
:102C6000C2F3420221681343CB60C7E7FFF732FA91
:102C70000028C3D04300E3E7FFF71AFAF8E7FEF7AE
:102C800085FDF5E72E4BDBE72E489DE72046FFF755
:102C900075FEB9E7002B7FF455AFFFF709FA00285E
:102CA00092D1ABE701207047FEF770FD00288BD171
:102CB000A4E7082B3FF646AF01A252F823F000BF6D
:102CC000E52C00080F2D00081B2D0008452B0008DF
:102CD000092D0008452B0008452B0008452B00084E
:102CE000152D0008FFF7E4F9002887D0636800EB92
:102CF0005300B0FBF3F080B2A0F110024FF6EF7377
:102D00009A427FF679AF1DE7FEF740FDECE7FFF74B
:102D1000E1F9E9E74FF40040E8E70A48E6E700BFD9
:102D2000F369FFEF0080004000380140004400409C
:102D300000100240D8360008FFFC0F00DC36000807
:102D40000048E8010024F400704700BFDFF834D0E9
:102D5000FDF7EEFE002103E00B4B5B5843500431BE
:102D60000A480B4B42189A42F6D30A4A02E0002363
:102D700042F8043B084B9A42F9D300F017F8FDF7EC
:102D80006BFCFEE7000001202C370008000000204B
:102D9000700200207002002020040020FEE70000E6
:102DA000014B1868704700BF0C02002070B50D4E33
:102DB0000D4CA41BA4100025A54209D10B4E0C4CB0
:102DC00000F03EFCA41BA4100025A54205D170BD57
:102DD00056F8253098470135EEE756F825309847E4
:102DE0000135F2E7243700082437000824370008AB
:102DF0002837000802440346934200D1704703F885
:102E0000011BF9E70EB400B59CB04FF402711DAB85
:102E1000ADF81410029006906FF000410A4804913A
:102E200007914FF6FF7153F8042BADF816100068A8
:102E3000019302A900F066F8029B00221A701CB0F0
:102E40005DF804EB03B070470C0200202DE9F04759
:102E50008E689E4282460C469146984635D88A89AD
:102E600012F4906F31D0256809696F1A65690223E1
:102E700005EB450595FBF3F508F101033B449D4245
:102E800038BF1D46530531D5294600F039FB0646AB
:102E900050B90C23CAF80030A38943F04003A38142
:102EA0004FF0FF30BDE8F0873A46216900F0B4FAF0
:102EB000A38923F4906343F08003A38126616561B5
:102EC0003E44ED1B2660A5604646464528BF464663
:102ED00032464946206800F0AAFAA3689B1BA3600B
:102EE00023681E4426600020BDE8F0872A4600F0D3
:102EF00065FB06460028E1D12169504600F0B2FA90
:102F0000C7E700002DE9F04F9DB0804603938B8901
:102F10001C060D4616460FD50B696BB9402100F013
:102F2000EFFA2860286128B90C23C8F800304FF068
:102F3000FF30C5E040236B610023099320238DF807
:102F4000293030238DF82A304FF0010B37463C46AC
:102F500014F8013B002B3CD1B7EB060A0BD05346CB
:102F6000324629464046FFF771FF013000F0A3804A
:102F7000099B534409933B78002B00F09C8000236D
:102F80004FF0FF3204930793059206938DF8533068
:102F90001A93052221785048FDF722F9671C049BFB
:102FA000D8B9D90644BF20228DF853201A0744BF50
:102FB0002B228DF8532022782A2A16D0079A002136
:102FC0000A20274601343B78303B092B51D9C9B13F
:102FD00011E0252BC0D02746B9E73F4A801A0BFAEB
:102FE00000F0184304903C46D3E7039A111D126881
:102FF0000391002A01DB079204E0524243F00203EE
:10300000079204933B782E2B0ED17B782A2B07F165
:10301000010132D1039B1A1D1B680392002BB8BF1C
:103020004FF0FF33023705932C4C397803222046AA
:10303000FDF7D6F838B14023001B03FA00F0049BDB
:10304000034304930137397825488DF82810062268
:103050007E1CFDF7C5F8002835D0224BFBB9039B39
:10306000073323F0070308330393099B4B44099369
:103070006CE700FB02320121A3E700230593184609
:103080000A240F4601313A78303A092A03D9002B35
:10309000CAD00590C8E704FB00200123F1E703AB89
:1030A00000932A46104B04A94046AFF30080B0F1CC
:1030B000FF3F8146D9D1AB895B063FF538AF099810
:1030C0001DB0BDE8F08F03AB00932A46064B04A960
:1030D000404600F081F8EAE7E9360008EF360008DC
:1030E000F3360008000000004D2E00082DE9F047DF
:1030F00091461F468A680B69DDF820809342B8BF6D
:103100001346C9F8003091F8432006460C4612B128
:103110000133C9F800302368990642BFD9F800305E
:103120000233C9F80030256815F0060507D104F10F
:10313000190AE368D9F800209B1A9D4229DB94F80C
:1031400043302268003318BF012392062ED404F1C5
:10315000430239463046C047013021D02368E56834
:10316000D9F8002003F00603042B08BFAD1AA368AA
:1031700022690CBF25EAE57500259342C4BF9B1A5E
:10318000ED184FF000091A344D451BD10020BDE861
:10319000F0870123524639463046C047013003D1FB
:1031A0004FF0FF30BDE8F0870135C2E7E1185A1C47
:1031B000302081F84300224494F8451082F84310EF
:1031C0000233C4E70123224639463046C047013066
:1031D000E6D009F10109D7E72DE9F04317460A7E49
:1031E00085B06E2A984606460C460C9B01F1430EAC
:1031F00000F0BC801AD8632A2ED00AD8002A00F02A
:10320000C880582A00F08A8004F1420584F84220E0
:103210002AE0642A01D0692AF6D121681A6811F0DF
:10322000800F23D0111D1960136827E0732A00F066
:10323000B48008D86F2A2AD0702AE5D10A6842F0F3
:1032400020020A6003E0752A21D0782ADCD1782296
:1032500084F845206E4964E01A6801F14205111DA9
:103260001960136884F842300123A3E011F0400F85
:1032700002F104011960D7D0B2F90030002B03DA53
:103280002D225B4284F8432062490A2217E020681D
:10329000196810F0800F03D0081D18600B6806E055
:1032A00010F0400F01F104001860F7D00B88594965
:1032B0006F2A14BF0A220822002084F843006568A0
:1032C000A560002DC0F29C80206820F004002060E2
:1032D000002B3FD1002D40F095807546082A0BD178
:1032E0002368DA0708D5236962689A42DEBF302373
:1032F00005F8013C05F1FF35AEEB05032361CDF880
:1033000000803B4603AA21463046FFF7EFFE01301E
:1033100055D14FF0FF3005B0BDE8F08381F845206E
:103320003C492268186812F0800F00F104051D6006
:1033300001D0036802E05506FBD50388D00744BFDF
:1033400042F0200222601BB9226822F02002226093
:103350001022B1E77546B3FBF2F002FB1033CB5CF1
:1033600005F8013D03460028F5D1B7E708681A685B
:10337000496910F0800F04D0101D1860136819609F
:1033800007E010F0400F02F1040018601368F6D057
:103390001980002323617546B1E71A68111D196071
:1033A0001568626800212846FCF71AFF08B1401B27
:1033B000606063682361002384F843309FE72369DA
:1033C0002A4639463046C0470130A2D023689B07C1
:1033D00007D5002504F11909E368039A9B1A9D4259
:1033E00005DBE068039B9842B8BF184693E70123CA
:1033F0004A4639463046C04701308AD00135EBE7AE
:10340000002BA7D10B7884F8423004F1420565E720
:103410000B370008FA36000810B5431E0A449142E3
:1034200000D110BD11F8014B03F8014FF7E78842B6
:1034300010B501EB020303D8421E99420CD110BD16
:103440009842F9D28118D21AD34200D110BD13F894
:10345000014D01F8014DF7E711F8014B02F8014F5A
:10346000EBE7000038B50546002945D051F8043C8B
:103470000C1F002BB8BFE41800F0D6F81F4A1368E1
:10348000104633B9636014602846BDE8384000F048
:10349000CCB8A3420CD921686218934204BF1A68C1
:1034A0005B68636004BF521822600460ECE7134657
:1034B0005A680AB1A242FAD919685818A0420BD129
:1034C00020680144581882421960DDD110685268A2
:1034D0005A6001441960D7E702D90C232B60D3E767
:1034E000206821188A4204BF11685268626004BFD4
:1034F000091821605C60C7E738BD00BF900200205A
:1035000070B5CD1C25F0030508350C2D38BF0C25F2
:10351000002D064601DBA94203D90C2333600020AD
:1035200070BD00F081F8234A1468214691B9224CFD
:1035300023681BB9304600F067F820602946304602
:1035400000F062F8431C26D10C233360304600F0B3
:103550006CF8E4E70B685B1B1AD40B2B0FD90B60DC
:10356000CD50CC18304600F060F804F10B00231D5C
:1035700020F00700C31A1BD05A42E25070BD8C42A3
:103580000DBF63684B686360136018BF0C46E9E7C2
:103590000C464968CAE7C41C24F00304A04205D0C5
:1035A000211A304600F030F80130CDD02560D9E73F
:1035B00070BD00BF9002002094020020F8B50746BD
:1035C00014460E4621B91146BDE8F840FFF798BFF2
:1035D00022B9FFF747FF25462846F8BD00F026F838
:1035E00084420FD921463846FFF78AFF0546002856
:1035F000F2D031462246FFF70FFF31463846FFF73B
:1036000031FFE9E73546E7E738B5064C00230546C4
:1036100008462360FDF772FA431C02D1236803B108
:103620002B6038BD1C0400207047704751F8040C13
:103630000028A0F10400BCBF0B58C0187047000060
:10364000F8B500BFF8BC08BC9E467047F8B500BF8F
:08365000F8BC08BC9E4670475F
:1036580053797374656D20436C6F636B3A20256CE6
:1036680075206B487A0D0A535953434C4B3A202521
:103678006C75206B487A0D0A000000004279746569
:10368800733A2025640000000000000000000000DC
:1036980001020304060708090000000001020304F0
:1036A800A0860100400D0300801A060000350C00BA
:1036B80040420F0080841E0000093D0000127A007D
:1036C8000024F40000366E010048E801006CDC02BA
:1036D800010402080010101004101010021010103D
:1036E80008232D302B2000686C4C00656667454622
:1036F8004700303132333435363738394142434464
:1037080045460030313233343536373839616263F3
:04371800646566007E
:08371C0094CBFF7F01000000C7
:04372400B5010008E3
:043728009101000803
:10372C0057686174657665720D0A00000000000030
:10373C00000000000000000000000000000000007D
:10374C00000000000000000000000000000000006D
:10375C00000000000000000000000000000000005D
:10376C00000000000000000000000000000000004D
:10377C00000000000000000000000000000000003D
:10378C00000000000000000000000000000000002D
:10379C00000000000000000000000000000000001D
:1037AC00000000000000000000000000000000000D
:1037BC0000000000000000000000000000000000FD
:1037CC0000000000000000000000000000000000ED
:1037DC0000000000000000000000000000000000DD
:1037EC0000000000000000000000000000000000CD
:1037FC0000000000000000000000000000000000BD
:10380C0000000000000000000000000000000000AC
:10381C00000000000000000000000000000000009C
:10382C0057686174657665720D0A0000000000002F
:10383C00000000000000000000000000000000007C
:10384C00000000000000000000000000000000006C
:10385C00000000000000000000000000000000005C
:10386C00000000000000000000000000000000004C
:10387C00000000000000000000000000000000003C
:10388C00000000000000000000000000000000002C
:10389C00000000000000000000000000000000001C
:1038AC00000000000000000000000000000000000C
:1038BC0000000000000000000000000000000000FC
:1038CC0000000000000000000000000000000000EC
:1038DC0000000000000000000000000000000000DC
:1038EC0000000000000000000000000000000000CC
:1038FC0000000000000000000000000000000000BC
:10390C0000000000000000000000000000000000AB
:10391C00000000000000000000000000000000019A
:10392C0000093D0001000000100000001002002002
:10393C00000000000000000000000000000000007B
:10394C00000000000000000000000000000000006B
:10395C00000000000000000000000000000000005B
:10396C00000000000000000000000000000000004B
:10397C00000000000000000000000000000000003B
:10398C00000000000000000000000000000000002B
:0400000508002D4D75
:00000001FF
